{
  "contractName": "Registry",
  "abi": [
    {
      "constant": true,
      "inputs": [
        {
          "name": "",
          "type": "bytes32"
        }
      ],
      "name": "expressedSentiments",
      "outputs": [
        {
          "name": "phrase",
          "type": "bytes32"
        },
        {
          "name": "sentiment",
          "type": "bytes32"
        }
      ],
      "payable": false,
      "stateMutability": "view",
      "type": "function"
    },
    {
      "constant": true,
      "inputs": [
        {
          "name": "",
          "type": "address"
        }
      ],
      "name": "profiles",
      "outputs": [
        {
          "name": "content",
          "type": "string"
        }
      ],
      "payable": false,
      "stateMutability": "view",
      "type": "function"
    },
    {
      "constant": true,
      "inputs": [
        {
          "name": "",
          "type": "bytes32"
        }
      ],
      "name": "sentiments",
      "outputs": [
        {
          "name": "content",
          "type": "string"
        },
        {
          "name": "token",
          "type": "address"
        },
        {
          "name": "value",
          "type": "uint256"
        }
      ],
      "payable": false,
      "stateMutability": "view",
      "type": "function"
    },
    {
      "constant": true,
      "inputs": [
        {
          "name": "",
          "type": "bytes32"
        }
      ],
      "name": "phrases",
      "outputs": [
        {
          "name": "content",
          "type": "string"
        },
        {
          "name": "creator",
          "type": "address"
        },
        {
          "name": "beneficiary",
          "type": "address"
        }
      ],
      "payable": false,
      "stateMutability": "view",
      "type": "function"
    },
    {
      "anonymous": false,
      "inputs": [
        {
          "indexed": false,
          "name": "creator",
          "type": "address"
        },
        {
          "indexed": false,
          "name": "phrase",
          "type": "bytes32"
        }
      ],
      "name": "PhraseCreated",
      "type": "event"
    },
    {
      "anonymous": false,
      "inputs": [
        {
          "indexed": false,
          "name": "sentiment",
          "type": "bytes32"
        }
      ],
      "name": "SentimentCreated",
      "type": "event"
    },
    {
      "anonymous": false,
      "inputs": [
        {
          "indexed": false,
          "name": "expresser",
          "type": "address"
        },
        {
          "indexed": false,
          "name": "expressSentiment",
          "type": "bytes32"
        }
      ],
      "name": "SentimentExpressed",
      "type": "event"
    },
    {
      "anonymous": false,
      "inputs": [
        {
          "indexed": false,
          "name": "creator",
          "type": "address"
        }
      ],
      "name": "ProfileCreated",
      "type": "event"
    },
    {
      "constant": false,
      "inputs": [
        {
          "name": "content",
          "type": "string"
        }
      ],
      "name": "createProfile",
      "outputs": [],
      "payable": false,
      "stateMutability": "nonpayable",
      "type": "function"
    },
    {
      "constant": false,
      "inputs": [
        {
          "name": "content",
          "type": "string"
        },
        {
          "name": "beneficiary",
          "type": "address"
        }
      ],
      "name": "createPhrase",
      "outputs": [],
      "payable": false,
      "stateMutability": "nonpayable",
      "type": "function"
    },
    {
      "constant": false,
      "inputs": [
        {
          "name": "content",
          "type": "string"
        },
        {
          "name": "token",
          "type": "address"
        },
        {
          "name": "value",
          "type": "uint256"
        }
      ],
      "name": "createSentiment",
      "outputs": [],
      "payable": false,
      "stateMutability": "nonpayable",
      "type": "function"
    },
    {
      "constant": false,
      "inputs": [
        {
          "name": "phraseKey",
          "type": "bytes32"
        },
        {
          "name": "sentimentKey",
          "type": "bytes32"
        }
      ],
      "name": "expressSentiment",
      "outputs": [],
      "payable": true,
      "stateMutability": "payable",
      "type": "function"
    }
  ],
  "bytecode": "0x608060405234801561001057600080fd5b50611d8f806100206000396000f3fe60806040526004361061007b5760003560e01c8063bf1a674f1161004e578063bf1a674f14610350578063dcb40ac714610442578063e280ca7114610530578063f9fbffd71461064a5761007b565b8063334c3f0e146100805780636647a4ab146101485780639c2f7b7614610230578063bbe1562714610286575b600080fd5b34801561008c57600080fd5b50610146600480360360208110156100a357600080fd5b81019080803590602001906401000000008111156100c057600080fd5b8201836020820111156100d257600080fd5b803590602001918460018302840111640100000000831117156100f457600080fd5b91908080601f016020809104026020016040519081016040528093929190818152602001838380828437600081840152601f19601f820116905080830192505050505050509192919290505050610682565b005b34801561015457600080fd5b5061022e6004803603604081101561016b57600080fd5b810190808035906020019064010000000081111561018857600080fd5b82018360208201111561019a57600080fd5b803590602001918460018302840111640100000000831117156101bc57600080fd5b91908080601f016020809104026020016040519081016040528093929190818152602001838380828437600081840152601f19601f820116905080830192505050505050509192919290803573ffffffffffffffffffffffffffffffffffffffff16906020019092919050505061085a565b005b34801561023c57600080fd5b506102696004803603602081101561025357600080fd5b8101908080359060200190929190505050610ab4565b604051808381526020018281526020019250505060405180910390f35b34801561029257600080fd5b506102d5600480360360208110156102a957600080fd5b81019080803573ffffffffffffffffffffffffffffffffffffffff169060200190929190505050610ad8565b6040518080602001828103825283818151815260200191508051906020019080838360005b838110156103155780820151818401526020810190506102fa565b50505050905090810190601f1680156103425780820380516001836020036101000a031916815260200191505b509250505060405180910390f35b34801561035c57600080fd5b506104406004803603606081101561037357600080fd5b810190808035906020019064010000000081111561039057600080fd5b8201836020820111156103a257600080fd5b803590602001918460018302840111640100000000831117156103c457600080fd5b91908080601f016020809104026020016040519081016040528093929190818152602001838380828437600081840152601f19601f820116905080830192505050505050509192919290803573ffffffffffffffffffffffffffffffffffffffff16906020019092919080359060200190929190505050610b8e565b005b34801561044e57600080fd5b5061047b6004803603602081101561046557600080fd5b8101908080359060200190929190505050610c99565b60405180806020018473ffffffffffffffffffffffffffffffffffffffff1673ffffffffffffffffffffffffffffffffffffffff168152602001838152602001828103825285818151815260200191508051906020019080838360005b838110156104f35780820151818401526020810190506104d8565b50505050905090810190601f1680156105205780820380516001836020036101000a031916815260200191505b5094505050505060405180910390f35b34801561053c57600080fd5b506105696004803603602081101561055357600080fd5b8101908080359060200190929190505050610d7b565b60405180806020018473ffffffffffffffffffffffffffffffffffffffff1673ffffffffffffffffffffffffffffffffffffffff1681526020018373ffffffffffffffffffffffffffffffffffffffff1673ffffffffffffffffffffffffffffffffffffffff168152602001828103825285818151815260200191508051906020019080838360005b8381101561060d5780820151818401526020810190506105f2565b50505050905090810190601f16801561063a5780820380516001836020036101000a031916815260200191505b5094505050505060405180910390f35b6106806004803603604081101561066057600080fd5b810190808035906020019092919080359060200190929190505050610e7d565b005b61068b336113e7565b156106e1576040517f08c379a0000000000000000000000000000000000000000000000000000000008152600401808060200182810382526030815260200180611d086030913960400191505060405180910390fd5b604051806060016040528082815260200160006040519080825280602002602001820160405280156107225781602001602082028038833980820191505090505b50815260200160006040519080825280602002602001820160405280156107585781602001602082028038833980820191505090505b508152506000803373ffffffffffffffffffffffffffffffffffffffff1673ffffffffffffffffffffffffffffffffffffffff16815260200190815260200160002060008201518160000190805190602001906107b6929190611afd565b5060208201518160010190805190602001906107d3929190611b7d565b5060408201518160020190805190602001906107f0929190611b7d565b509050507ff10ec97e920cde75887622583772c637595a40b1f7777c18e51ea36cd127475c33604051808273ffffffffffffffffffffffffffffffffffffffff1673ffffffffffffffffffffffffffffffffffffffff16815260200191505060405180910390a150565b610863336113e7565b6108b8576040517f08c379a000000000000000000000000000000000000000000000000000000000815260040180806020018281038252602c815260200180611d38602c913960400191505060405180910390fd5b6108c0611bca565b60405180606001604052808481526020013373ffffffffffffffffffffffffffffffffffffffff1681526020018373ffffffffffffffffffffffffffffffffffffffff168152509050600061091482611449565b905081600160008381526020019081526020016000206000820151816000019080519060200190610946929190611afd565b5060208201518160010160006101000a81548173ffffffffffffffffffffffffffffffffffffffff021916908373ffffffffffffffffffffffffffffffffffffffff16021790555060408201518160020160006101000a81548173ffffffffffffffffffffffffffffffffffffffff021916908373ffffffffffffffffffffffffffffffffffffffff1602179055509050506000803373ffffffffffffffffffffffffffffffffffffffff1673ffffffffffffffffffffffffffffffffffffffff1681526020019081526020016000206001018190806001815401808255809150509060018203906000526020600020016000909192909190915055507f27f10c0c2bc5901c646cf059d82e6a8c2b2a8afec16d180a49a02175382da4053382604051808373ffffffffffffffffffffffffffffffffffffffff1673ffffffffffffffffffffffffffffffffffffffff1681526020018281526020019250505060405180910390a150505050565b60036020528060005260406000206000915090508060000154908060010154905082565b6000602052806000526040600020600091509050806000018054600181600116156101000203166002900480601f016020809104026020016040519081016040528092919081815260200182805460018160011615610100020316600290048015610b845780601f10610b5957610100808354040283529160200191610b84565b820191906000526020600020905b815481529060010190602001808311610b6757829003601f168201915b5050505050905081565b610b96611c17565b60405180606001604052808581526020018473ffffffffffffffffffffffffffffffffffffffff1681526020018381525090506000610bd482611624565b905081600260008381526020019081526020016000206000820151816000019080519060200190610c06929190611afd565b5060208201518160010160006101000a81548173ffffffffffffffffffffffffffffffffffffffff021916908373ffffffffffffffffffffffffffffffffffffffff160217905550604082015181600201559050507fbb865c7de54d565bd3eebd7fa2fafbccda719f1793badea68d4e98202b428847816040518082815260200191505060405180910390a15050505050565b6002602052806000526040600020600091509050806000018054600181600116156101000203166002900480601f016020809104026020016040519081016040528092919081815260200182805460018160011615610100020316600290048015610d455780601f10610d1a57610100808354040283529160200191610d45565b820191906000526020600020905b815481529060010190602001808311610d2857829003601f168201915b5050505050908060010160009054906101000a900473ffffffffffffffffffffffffffffffffffffffff16908060020154905083565b6001602052806000526040600020600091509050806000018054600181600116156101000203166002900480601f016020809104026020016040519081016040528092919081815260200182805460018160011615610100020316600290048015610e275780601f10610dfc57610100808354040283529160200191610e27565b820191906000526020600020905b815481529060010190602001808311610e0a57829003601f168201915b5050505050908060010160009054906101000a900473ffffffffffffffffffffffffffffffffffffffff16908060020160009054906101000a900473ffffffffffffffffffffffffffffffffffffffff16905083565b610e86336113e7565b610edb576040517f08c379a000000000000000000000000000000000000000000000000000000000815260040180806020018281038252602c815260200180611d38602c913960400191505060405180910390fd5b610ee4826117d0565b610f39576040517f08c379a0000000000000000000000000000000000000000000000000000000008152600401808060200182810382526026815260200180611ce26026913960400191505060405180910390fd5b610f4281611807565b610f97576040517f08c379a0000000000000000000000000000000000000000000000000000000008152600401808060200182810382526029815260200180611cb96029913960400191505060405180910390fd5b610f9f611c4e565b60405180604001604052808481526020018381525090506000610fc18261183e565b9050610fcc8161193c565b610ffc57816003600083815260200190815260200160002060008201518160000155602082015181600101559050505b611004611bca565b60016000868152602001908152602001600020604051806060016040529081600082018054600181600116156101000203166002900480601f0160208091040260200160405190810160405280929190818152602001828054600181600116156101000203166002900480156110bb5780601f10611090576101008083540402835291602001916110bb565b820191906000526020600020905b81548152906001019060200180831161109e57829003601f168201915b505050505081526020016001820160009054906101000a900473ffffffffffffffffffffffffffffffffffffffff1673ffffffffffffffffffffffffffffffffffffffff1673ffffffffffffffffffffffffffffffffffffffff1681526020016002820160009054906101000a900473ffffffffffffffffffffffffffffffffffffffff1673ffffffffffffffffffffffffffffffffffffffff1673ffffffffffffffffffffffffffffffffffffffff1681525050905061117a611c17565b60026000868152602001908152602001600020604051806060016040529081600082018054600181600116156101000203166002900480601f0160208091040260200160405190810160405280929190818152602001828054600181600116156101000203166002900480156112315780601f1061120657610100808354040283529160200191611231565b820191906000526020600020905b81548152906001019060200180831161121457829003601f168201915b505050505081526020016001820160009054906101000a900473ffffffffffffffffffffffffffffffffffffffff1673ffffffffffffffffffffffffffffffffffffffff1673ffffffffffffffffffffffffffffffffffffffff1681526020016002820154815250509050600073ffffffffffffffffffffffffffffffffffffffff16826040015173ffffffffffffffffffffffffffffffffffffffff1614156112f1576112ec82602001518260200151836040015161197f565b611309565b61130882604001518260200151836040015161197f565b5b6000803373ffffffffffffffffffffffffffffffffffffffff1673ffffffffffffffffffffffffffffffffffffffff1681526020019081526020016000206002018390806001815401808255809150509060018203906000526020600020016000909192909190915055507f428df8e4a4bdea47e2342548e0ddaab8416a7f3e7b818a28733250e1a2a151853384604051808373ffffffffffffffffffffffffffffffffffffffff1673ffffffffffffffffffffffffffffffffffffffff1681526020018281526020019250505060405180910390a1505050505050565b6000806000808473ffffffffffffffffffffffffffffffffffffffff1673ffffffffffffffffffffffffffffffffffffffff16815260200190815260200160002060000180546001816001161561010002031660029004905014159050919050565b600060028260000151836020015184604001516040516020018084805190602001908083835b60208310611492578051825260208201915060208101905060208303925061146f565b6001836020036101000a038019825116818451168082178552505050505050905001807f2d000000000000000000000000000000000000000000000000000000000000008152506001018373ffffffffffffffffffffffffffffffffffffffff1673ffffffffffffffffffffffffffffffffffffffff1660601b8152601401807f2d000000000000000000000000000000000000000000000000000000000000008152506001018273ffffffffffffffffffffffffffffffffffffffff1673ffffffffffffffffffffffffffffffffffffffff1660601b815260140193505050506040516020818303038152906040526040518082805190602001908083835b602083106115b55780518252602082019150602081019050602083039250611592565b6001836020036101000a038019825116818451168082178552505050505050905001915050602060405180830381855afa1580156115f7573d6000803e3d6000fd5b5050506040513d602081101561160c57600080fd5b81019080805190602001909291905050509050919050565b600060028260000151836020015184604001516040516020018084805190602001908083835b6020831061166d578051825260208201915060208101905060208303925061164a565b6001836020036101000a038019825116818451168082178552505050505050905001807f2d000000000000000000000000000000000000000000000000000000000000008152506001018373ffffffffffffffffffffffffffffffffffffffff1673ffffffffffffffffffffffffffffffffffffffff1660601b8152601401807f2d0000000000000000000000000000000000000000000000000000000000000081525060010182815260200193505050506040516020818303038152906040526040518082805190602001908083835b60208310611761578051825260208201915060208101905060208303925061173e565b6001836020036101000a038019825116818451168082178552505050505050905001915050602060405180830381855afa1580156117a3573d6000803e3d6000fd5b5050506040513d60208110156117b857600080fd5b81019080805190602001909291905050509050919050565b6000806001600084815260200190815260200160002060000180546001816001161561010002031660029004905014159050919050565b6000806002600084815260200190815260200160002060000180546001816001161561010002031660029004905014159050919050565b600060028260000151836020015160405160200180838152602001807f2d00000000000000000000000000000000000000000000000000000000000000815250600101828152602001925050506040516020818303038152906040526040518082805190602001908083835b602083106118cd57805182526020820191506020810190506020830392506118aa565b6001836020036101000a038019825116818451168082178552505050505050905001915050602060405180830381855afa15801561190f573d6000803e3d6000fd5b5050506040513d602081101561192457600080fd5b81019080805190602001909291905050509050919050565b60008060036000848152602001908152602001600020600001541480611978575060006003600084815260200190815260200160002060010154145b9050919050565b600073ffffffffffffffffffffffffffffffffffffffff168273ffffffffffffffffffffffffffffffffffffffff161415611a00578273ffffffffffffffffffffffffffffffffffffffff166108fc829081150290604051600060405180830381858888f193505050501580156119fa573d6000803e3d6000fd5b50611af8565b8173ffffffffffffffffffffffffffffffffffffffff166323b872dd3385846040518463ffffffff1660e01b8152600401808473ffffffffffffffffffffffffffffffffffffffff1673ffffffffffffffffffffffffffffffffffffffff1681526020018373ffffffffffffffffffffffffffffffffffffffff1673ffffffffffffffffffffffffffffffffffffffff1681526020018281526020019350505050602060405180830381600087803b158015611abb57600080fd5b505af1158015611acf573d6000803e3d6000fd5b505050506040513d6020811015611ae557600080fd5b8101908080519060200190929190505050505b505050565b828054600181600116156101000203166002900490600052602060002090601f016020900481019282601f10611b3e57805160ff1916838001178555611b6c565b82800160010185558215611b6c579182015b82811115611b6b578251825591602001919060010190611b50565b5b509050611b799190611c6e565b5090565b828054828255906000526020600020908101928215611bb9579160200282015b82811115611bb8578251825591602001919060010190611b9d565b5b509050611bc69190611c93565b5090565b604051806060016040528060608152602001600073ffffffffffffffffffffffffffffffffffffffff168152602001600073ffffffffffffffffffffffffffffffffffffffff1681525090565b604051806060016040528060608152602001600073ffffffffffffffffffffffffffffffffffffffff168152602001600081525090565b604051806040016040528060008019168152602001600080191681525090565b611c9091905b80821115611c8c576000816000905550600101611c74565b5090565b90565b611cb591905b80821115611cb1576000816000905550600101611c99565b5090565b9056fe53656e74696d656e742073686f756c6420657869737420666f722074686520676976656e206b65792e5068726173652073686f756c6420657869737420666f722074686520676976656e206b65792e50726f66696c652073686f756c64206e6f7420657869737420666f7220746865206d6573736167652073656e6465722e50726f66696c652073686f756c6420657869737420666f7220746865206d6573736167652073656e6465722ea165627a7a72305820b04a27c60b521f8c55d91478feb4fd9cd4d6deb44b670181ea83407e343a4be50029",
  "source": "pragma solidity >=0.5.0;\n\nimport \"./ERC20Interface.sol\";\n\ncontract Registry {\n  event PhraseCreated(address creator, bytes32 phrase);\n  event SentimentCreated(bytes32 sentiment);\n  event SentimentExpressed(address expresser, bytes32 expressSentiment);\n  event ProfileCreated(address creator);\n\n  struct Phrase {\n    string content;\n    address payable creator;\n    address payable beneficiary;\n  }\n\n  struct Sentiment {\n    string content;\n    address token;\n    uint256 value;\n  }\n\n  struct ExpressedSentiment {\n    bytes32 phrase;\n    bytes32 sentiment;\n  }\n\n  struct Profile {\n    string content;\n    bytes32[] phrases;\n    bytes32[] expressedSentiments;\n  }\n\n  mapping(address => Profile) public profiles;\n  mapping(bytes32 => Phrase) public phrases;\n  mapping(bytes32 => Sentiment) public sentiments;\n  mapping(bytes32 => ExpressedSentiment) public expressedSentiments;\n\n  function createProfile(\n    string memory content\n  )\n    public\n  {\n    // Verify that the profile does not already exist.\n    require(\n      !profileExists(msg.sender),\n      \"Profile should not exist for the message sender.\"\n    );\n\n    // Create a new profile for the given address.\n    profiles[msg.sender] = Profile(\n      content,\n      new bytes32[](0),\n      new bytes32[](0)\n    );\n\n    emit ProfileCreated(msg.sender);\n  }\n\n  function createPhrase(\n    string memory content,\n    address payable beneficiary\n  )\n    public\n  {\n    // Verify that the profile creating the phrase exists.\n    require(\n      profileExists(msg.sender),\n      \"Profile should exist for the message sender.\"\n    );\n\n    // Create a new phrase.\n    Phrase memory phrase = Phrase(\n      content,\n      msg.sender,\n      beneficiary\n    );\n\n    // Create a unique key for the phrase and store it in the global map.\n    bytes32 key = hashPhrase(phrase);\n    phrases[key] = phrase;\n    profiles[msg.sender].phrases.push(key);\n\n    emit PhraseCreated(msg.sender, key);\n  }\n\n  function createSentiment(\n    string memory content,\n    address token,\n    uint256 value\n  )\n    public\n  {\n    // Create a new sentiment.\n    Sentiment memory sentiment = Sentiment(\n      content,\n      token,\n      value\n    );\n\n    // Create a unique key for the sentiment and store it in the global map.\n    bytes32 key = hashSentiment(sentiment);\n    sentiments[key] = sentiment;\n\n    emit SentimentCreated(key);\n  }\n\n  function expressSentiment(\n    bytes32 phraseKey,\n    bytes32 sentimentKey\n  )\n    public\n    payable\n  {\n    // Verify that the profile, phrase, and sentiment exist.\n    require(\n      profileExists(msg.sender),\n      \"Profile should exist for the message sender.\"\n    );\n    require(\n      phraseExists(phraseKey),\n      \"Phrase should exist for the given key.\"\n    );\n    require(\n      sentimentExists(sentimentKey),\n      \"Sentiment should exist for the given key.\"\n    );\n\n    // Create a new expressed sentiment\n    ExpressedSentiment memory expressedSentiment = ExpressedSentiment(\n      phraseKey,\n      sentimentKey\n    );\n\n    // Store the expressed sentiment in the global map, if it isn't already.\n    bytes32 expressedSentimentKey = hashExpressedSentiment(expressedSentiment);\n    if(!expressedSentimentExists(expressedSentimentKey)) {\n      expressedSentiments[expressedSentimentKey] = expressedSentiment;\n    }\n\n    // Transfer the sentiment's value to the phrases's creator or beneficiary.\n    Phrase memory phrase = phrases[phraseKey];\n    Sentiment memory sentiment = sentiments[sentimentKey];\n    if (phrase.beneficiary == address(0)) {\n      transfer(phrase.creator, sentiment.token, sentiment.value);\n    } else {\n      transfer(phrase.beneficiary, sentiment.token, sentiment.value);\n    }\n\n    // Associate the expressed sentiment with the profile.\n    profiles[msg.sender].expressedSentiments.push(expressedSentimentKey);\n\n    emit SentimentExpressed(msg.sender, expressedSentimentKey);\n  }\n\n  function transfer(\n    address payable receiver,\n    address tokenAddress,\n    uint256 amount\n  )\n    internal\n  {\n    if (tokenAddress == address(0)) {\n      receiver.transfer(amount);\n    } else {\n      ERC20Interface(tokenAddress).transferFrom(msg.sender, receiver, amount);\n    }\n  }\n\n  function hashPhrase(\n    Phrase memory phrase\n  )\n    internal\n    pure\n    returns (bytes32)\n  {\n    return sha256(\n      abi.encodePacked(\n        phrase.content, \"-\", phrase.creator, \"-\", phrase.beneficiary\n      )\n    );\n  }\n\n  function hashSentiment(\n    Sentiment memory sentiment\n  )\n    internal\n    pure\n    returns (bytes32)\n  {\n    return sha256(\n      abi.encodePacked(\n        sentiment.content, \"-\", sentiment.token, \"-\", sentiment.value\n      )\n    );\n  }\n\n  function hashExpressedSentiment(\n    ExpressedSentiment memory expressedSentiment\n  )\n    internal\n    pure\n    returns (bytes32)\n  {\n    return sha256(\n      abi.encodePacked(\n        expressedSentiment.phrase, \"-\", expressedSentiment.sentiment\n      )\n    );\n  }\n\n  function profileExists(\n    address owner\n  )\n    internal\n    view\n    returns (bool)\n  {\n    return bytes(profiles[owner].content).length != 0;\n  }\n\n  function phraseExists(\n    bytes32 key\n  )\n    internal\n    view\n    returns (bool)\n  {\n    return bytes(phrases[key].content).length != 0;\n  }\n\n  function sentimentExists(\n    bytes32 key\n  )\n    internal\n    view\n    returns (bool)\n  {\n    return bytes(sentiments[key].content).length != 0;\n  }\n\n  function expressedSentimentExists(\n    bytes32 key\n  )\n    internal\n    view\n    returns (bool)\n  {\n    return expressedSentiments[key].phrase == \"\" || expressedSentiments[key].sentiment == \"\";\n  }\n}\n",
  "sourcePath": "/home/grant/workshop/phrase/solidity-contracts/contracts/Registry.sol",
  "compiler": {
    "name": "solc",
    "version": "0.5.8+commit.23d335f2.Emscripten.clang"
  },
  "schemaVersion": "3.0.11",
  "updatedAt": "2019-08-16T10:11:47.772Z",
  "devdoc": {
    "methods": {}
  },
  "userdoc": {
    "methods": {}
  }
}