{
  "contractName": "Registry",
  "abi": [
    {
      "constant": true,
      "inputs": [
        {
          "name": "",
          "type": "bytes20"
        }
      ],
      "name": "sentiments",
      "outputs": [
        {
          "name": "format",
          "type": "string"
        },
        {
          "name": "content",
          "type": "string"
        },
        {
          "name": "token",
          "type": "address"
        },
        {
          "name": "value",
          "type": "uint256"
        }
      ],
      "payable": false,
      "stateMutability": "view",
      "type": "function"
    },
    {
      "constant": true,
      "inputs": [
        {
          "name": "",
          "type": "bytes20"
        }
      ],
      "name": "phrases",
      "outputs": [
        {
          "name": "format",
          "type": "string"
        },
        {
          "name": "content",
          "type": "string"
        },
        {
          "name": "creator",
          "type": "address"
        },
        {
          "name": "beneficiary",
          "type": "address"
        }
      ],
      "payable": false,
      "stateMutability": "view",
      "type": "function"
    },
    {
      "anonymous": false,
      "inputs": [
        {
          "indexed": false,
          "name": "creator",
          "type": "address"
        },
        {
          "indexed": false,
          "name": "phrase",
          "type": "bytes20"
        }
      ],
      "name": "PhraseCreated",
      "type": "event"
    },
    {
      "anonymous": false,
      "inputs": [
        {
          "indexed": false,
          "name": "creator",
          "type": "address"
        },
        {
          "indexed": false,
          "name": "sentiment",
          "type": "bytes20"
        }
      ],
      "name": "SentimentCreated",
      "type": "event"
    },
    {
      "anonymous": false,
      "inputs": [
        {
          "indexed": false,
          "name": "expresser",
          "type": "address"
        },
        {
          "indexed": false,
          "name": "phrase",
          "type": "bytes20"
        },
        {
          "indexed": false,
          "name": "sentiment",
          "type": "bytes20"
        }
      ],
      "name": "SentimentPinned",
      "type": "event"
    },
    {
      "constant": false,
      "inputs": [
        {
          "name": "format",
          "type": "string"
        },
        {
          "name": "content",
          "type": "string"
        },
        {
          "name": "beneficiary",
          "type": "address"
        }
      ],
      "name": "createPhrase",
      "outputs": [],
      "payable": false,
      "stateMutability": "nonpayable",
      "type": "function"
    },
    {
      "constant": false,
      "inputs": [
        {
          "name": "format",
          "type": "string"
        },
        {
          "name": "content",
          "type": "string"
        },
        {
          "name": "token",
          "type": "address"
        },
        {
          "name": "value",
          "type": "uint256"
        }
      ],
      "name": "createSentiment",
      "outputs": [],
      "payable": false,
      "stateMutability": "nonpayable",
      "type": "function"
    },
    {
      "constant": false,
      "inputs": [
        {
          "name": "phraseKey",
          "type": "bytes20"
        },
        {
          "name": "sentimentKey",
          "type": "bytes20"
        }
      ],
      "name": "pinSentiment",
      "outputs": [],
      "payable": true,
      "stateMutability": "payable",
      "type": "function"
    }
  ],
  "bytecode": "0x608060405234801561001057600080fd5b50611c7b806100206000396000f3fe60806040526004361061004a5760003560e01c806301863d6f1461004f578063405bfe97146101b85780634637fec51461034d5780634a6f324d146103a3578063a13d0da714610522575b600080fd5b34801561005b57600080fd5b506100976004803603602081101561007257600080fd5b8101908080356bffffffffffffffffffffffff191690602001909291905050506106ab565b6040518080602001806020018573ffffffffffffffffffffffffffffffffffffffff1673ffffffffffffffffffffffffffffffffffffffff168152602001848152602001838103835287818151815260200191508051906020019080838360005b838110156101135780820151818401526020810190506100f8565b50505050905090810190601f1680156101405780820380516001836020036101000a031916815260200191505b50838103825286818151815260200191508051906020019080838360005b8381101561017957808201518184015260208101905061015e565b50505050905090810190601f1680156101a65780820380516001836020036101000a031916815260200191505b50965050505050505060405180910390f35b3480156101c457600080fd5b50610200600480360360208110156101db57600080fd5b8101908080356bffffffffffffffffffffffff1916906020019092919050505061082b565b6040518080602001806020018573ffffffffffffffffffffffffffffffffffffffff1673ffffffffffffffffffffffffffffffffffffffff1681526020018473ffffffffffffffffffffffffffffffffffffffff1673ffffffffffffffffffffffffffffffffffffffff168152602001838103835287818151815260200191508051906020019080838360005b838110156102a857808201518184015260208101905061028d565b50505050905090810190601f1680156102d55780820380516001836020036101000a031916815260200191505b50838103825286818151815260200191508051906020019080838360005b8381101561030e5780820151818401526020810190506102f3565b50505050905090810190601f16801561033b5780820380516001836020036101000a031916815260200191505b50965050505050505060405180910390f35b6103a16004803603604081101561036357600080fd5b8101908080356bffffffffffffffffffffffff1916906020019092919080356bffffffffffffffffffffffff191690602001909291905050506109cb565b005b3480156103af57600080fd5b50610520600480360360608110156103c657600080fd5b81019080803590602001906401000000008111156103e357600080fd5b8201836020820111156103f557600080fd5b8035906020019184600183028401116401000000008311171561041757600080fd5b91908080601f016020809104026020016040519081016040528093929190818152602001838380828437600081840152601f19601f8201169050808301925050505050505091929192908035906020019064010000000081111561047a57600080fd5b82018360208201111561048c57600080fd5b803590602001918460018302840111640100000000831117156104ae57600080fd5b91908080601f016020809104026020016040519081016040528093929190818152602001838380828437600081840152601f19601f820116905080830192505050505050509192919290803573ffffffffffffffffffffffffffffffffffffffff16906020019092919050505061108e565b005b34801561052e57600080fd5b506106a96004803603608081101561054557600080fd5b810190808035906020019064010000000081111561056257600080fd5b82018360208201111561057457600080fd5b8035906020019184600183028401116401000000008311171561059657600080fd5b91908080601f016020809104026020016040519081016040528093929190818152602001838380828437600081840152601f19601f820116905080830192505050505050509192919290803590602001906401000000008111156105f957600080fd5b82018360208201111561060b57600080fd5b8035906020019184600183028401116401000000008311171561062d57600080fd5b91908080601f016020809104026020016040519081016040528093929190818152602001838380828437600081840152601f19601f820116905080830192505050505050509192919290803573ffffffffffffffffffffffffffffffffffffffff1690602001909291908035906020019092919050505061127e565b005b6001602052806000526040600020600091509050806000018054600181600116156101000203166002900480601f0160208091040260200160405190810160405280929190818152602001828054600181600116156101000203166002900480156107575780601f1061072c57610100808354040283529160200191610757565b820191906000526020600020905b81548152906001019060200180831161073a57829003601f168201915b505050505090806001018054600181600116156101000203166002900480601f0160208091040260200160405190810160405280929190818152602001828054600181600116156101000203166002900480156107f55780601f106107ca576101008083540402835291602001916107f5565b820191906000526020600020905b8154815290600101906020018083116107d857829003601f168201915b5050505050908060020160009054906101000a900473ffffffffffffffffffffffffffffffffffffffff16908060030154905084565b6000602052806000526040600020600091509050806000018054600181600116156101000203166002900480601f0160208091040260200160405190810160405280929190818152602001828054600181600116156101000203166002900480156108d75780601f106108ac576101008083540402835291602001916108d7565b820191906000526020600020905b8154815290600101906020018083116108ba57829003601f168201915b505050505090806001018054600181600116156101000203166002900480601f0160208091040260200160405190810160405280929190818152602001828054600181600116156101000203166002900480156109755780601f1061094a57610100808354040283529160200191610975565b820191906000526020600020905b81548152906001019060200180831161095857829003601f168201915b5050505050908060020160009054906101000a900473ffffffffffffffffffffffffffffffffffffffff16908060030160009054906101000a900473ffffffffffffffffffffffffffffffffffffffff16905084565b6109d48261141d565b610a29576040517f08c379a0000000000000000000000000000000000000000000000000000000008152600401808060200182810382526026815260200180611c2a6026913960400191505060405180910390fd5b610a3281611471565b610a87576040517f08c379a0000000000000000000000000000000000000000000000000000000008152600401808060200182810382526029815260200180611c016029913960400191505060405180910390fd5b610a8f611ac9565b600080846bffffffffffffffffffffffff19166bffffffffffffffffffffffff19168152602001908152602001600020604051806080016040529081600082018054600181600116156101000203166002900480601f016020809104026020016040519081016040528092919081815260200182805460018160011615610100020316600290048015610b635780601f10610b3857610100808354040283529160200191610b63565b820191906000526020600020905b815481529060010190602001808311610b4657829003601f168201915b50505050508152602001600182018054600181600116156101000203166002900480601f016020809104026020016040519081016040528092919081815260200182805460018160011615610100020316600290048015610c055780601f10610bda57610100808354040283529160200191610c05565b820191906000526020600020905b815481529060010190602001808311610be857829003601f168201915b505050505081526020016002820160009054906101000a900473ffffffffffffffffffffffffffffffffffffffff1673ffffffffffffffffffffffffffffffffffffffff1673ffffffffffffffffffffffffffffffffffffffff1681526020016003820160009054906101000a900473ffffffffffffffffffffffffffffffffffffffff1673ffffffffffffffffffffffffffffffffffffffff1673ffffffffffffffffffffffffffffffffffffffff16815250509050610cc4611b1d565b60016000846bffffffffffffffffffffffff19166bffffffffffffffffffffffff19168152602001908152602001600020604051806080016040529081600082018054600181600116156101000203166002900480601f016020809104026020016040519081016040528092919081815260200182805460018160011615610100020316600290048015610d995780601f10610d6e57610100808354040283529160200191610d99565b820191906000526020600020905b815481529060010190602001808311610d7c57829003601f168201915b50505050508152602001600182018054600181600116156101000203166002900480601f016020809104026020016040519081016040528092919081815260200182805460018160011615610100020316600290048015610e3b5780601f10610e1057610100808354040283529160200191610e3b565b820191906000526020600020905b815481529060010190602001808311610e1e57829003601f168201915b505050505081526020016002820160009054906101000a900473ffffffffffffffffffffffffffffffffffffffff1673ffffffffffffffffffffffffffffffffffffffff1673ffffffffffffffffffffffffffffffffffffffff1681526020016003820154815250509050600073ffffffffffffffffffffffffffffffffffffffff16826060015173ffffffffffffffffffffffffffffffffffffffff161415610efb57610ef68260400151826040015183606001516114c6565b610f13565b610f128260600151826040015183606001516114c6565b5b600080856bffffffffffffffffffffffff19166bffffffffffffffffffffffff191681526020019081526020016000206004016000846bffffffffffffffffffffffff19166bffffffffffffffffffffffff191681526020019081526020016000203390806001815401808255809150509060018203906000526020600020016000909192909190916101000a81548173ffffffffffffffffffffffffffffffffffffffff021916908373ffffffffffffffffffffffffffffffffffffffff160217905550507f82a9333eb746054c99bfa0d8dcfe790fc9d8b3b7e4eda2cfd3fdfbae10eb4416338585604051808473ffffffffffffffffffffffffffffffffffffffff1673ffffffffffffffffffffffffffffffffffffffff168152602001836bffffffffffffffffffffffff19166bffffffffffffffffffffffff19168152602001826bffffffffffffffffffffffff19166bffffffffffffffffffffffff19168152602001935050505060405180910390a150505050565b611096611ac9565b60405180608001604052808581526020018481526020013373ffffffffffffffffffffffffffffffffffffffff1681526020018373ffffffffffffffffffffffffffffffffffffffff16815250905060006110f082611644565b905081600080836bffffffffffffffffffffffff19166bffffffffffffffffffffffff19168152602001908152602001600020600082015181600001908051906020019061113f929190611b5b565b50602082015181600101908051906020019061115c929190611b5b565b5060408201518160020160006101000a81548173ffffffffffffffffffffffffffffffffffffffff021916908373ffffffffffffffffffffffffffffffffffffffff16021790555060608201518160030160006101000a81548173ffffffffffffffffffffffffffffffffffffffff021916908373ffffffffffffffffffffffffffffffffffffffff1602179055509050507f1ce765b17b1f9e80c1dcfa64580cf250a23cb73df5714fe9a976029764b999ad3382604051808373ffffffffffffffffffffffffffffffffffffffff1673ffffffffffffffffffffffffffffffffffffffff168152602001826bffffffffffffffffffffffff19166bffffffffffffffffffffffff191681526020019250505060405180910390a15050505050565b611286611b1d565b60405180608001604052808681526020018581526020018473ffffffffffffffffffffffffffffffffffffffff16815260200183815250905060006112ca8261189e565b90508160016000836bffffffffffffffffffffffff19166bffffffffffffffffffffffff19168152602001908152602001600020600082015181600001908051906020019061131a929190611b5b565b506020820151816001019080519060200190611337929190611b5b565b5060408201518160020160006101000a81548173ffffffffffffffffffffffffffffffffffffffff021916908373ffffffffffffffffffffffffffffffffffffffff160217905550606082015181600301559050507ff05dfaada80564adbb93913419174939b2ea1175fa812a1b9e517eee8b3e37153382604051808373ffffffffffffffffffffffffffffffffffffffff1673ffffffffffffffffffffffffffffffffffffffff168152602001826bffffffffffffffffffffffff19166bffffffffffffffffffffffff191681526020019250505060405180910390a1505050505050565b600080600080846bffffffffffffffffffffffff19166bffffffffffffffffffffffff1916815260200190815260200160002060010180546001816001161561010002031660029004905014159050919050565b60008060016000846bffffffffffffffffffffffff19166bffffffffffffffffffffffff1916815260200190815260200160002060010180546001816001161561010002031660029004905014159050919050565b600073ffffffffffffffffffffffffffffffffffffffff168273ffffffffffffffffffffffffffffffffffffffff161415611547578273ffffffffffffffffffffffffffffffffffffffff166108fc829081150290604051600060405180830381858888f19350505050158015611541573d6000803e3d6000fd5b5061163f565b8173ffffffffffffffffffffffffffffffffffffffff166323b872dd3385846040518463ffffffff1660e01b8152600401808473ffffffffffffffffffffffffffffffffffffffff1673ffffffffffffffffffffffffffffffffffffffff1681526020018373ffffffffffffffffffffffffffffffffffffffff1673ffffffffffffffffffffffffffffffffffffffff1681526020018281526020019350505050602060405180830381600087803b15801561160257600080fd5b505af1158015611616573d6000803e3d6000fd5b505050506040513d602081101561162c57600080fd5b8101908080519060200190929190505050505b505050565b6000600282600001518360200151846040015185606001516040516020018085805190602001908083835b60208310611692578051825260208201915060208101905060208303925061166f565b6001836020036101000a038019825116818451168082178552505050505050905001807f2d0000000000000000000000000000000000000000000000000000000000000081525060010184805190602001908083835b6020831061170b57805182526020820191506020810190506020830392506116e8565b6001836020036101000a038019825116818451168082178552505050505050905001807f2d000000000000000000000000000000000000000000000000000000000000008152506001018373ffffffffffffffffffffffffffffffffffffffff1673ffffffffffffffffffffffffffffffffffffffff1660601b8152601401807f2d000000000000000000000000000000000000000000000000000000000000008152506001018273ffffffffffffffffffffffffffffffffffffffff1673ffffffffffffffffffffffffffffffffffffffff1660601b81526014019450505050506040516020818303038152906040526040518082805190602001908083835b6020831061182f578051825260208201915060208101905060208303925061180c565b6001836020036101000a038019825116818451168082178552505050505050905001915050602060405180830381855afa158015611871573d6000803e3d6000fd5b5050506040513d602081101561188657600080fd5b81019080805190602001909291905050509050919050565b6000600282600001518360200151846040015185606001516040516020018085805190602001908083835b602083106118ec57805182526020820191506020810190506020830392506118c9565b6001836020036101000a038019825116818451168082178552505050505050905001807f2d0000000000000000000000000000000000000000000000000000000000000081525060010184805190602001908083835b602083106119655780518252602082019150602081019050602083039250611942565b6001836020036101000a038019825116818451168082178552505050505050905001807f2d000000000000000000000000000000000000000000000000000000000000008152506001018373ffffffffffffffffffffffffffffffffffffffff1673ffffffffffffffffffffffffffffffffffffffff1660601b8152601401807f2d000000000000000000000000000000000000000000000000000000000000008152506001018281526020019450505050506040516020818303038152906040526040518082805190602001908083835b60208310611a5a5780518252602082019150602081019050602083039250611a37565b6001836020036101000a038019825116818451168082178552505050505050905001915050602060405180830381855afa158015611a9c573d6000803e3d6000fd5b5050506040513d6020811015611ab157600080fd5b81019080805190602001909291905050509050919050565b60405180608001604052806060815260200160608152602001600073ffffffffffffffffffffffffffffffffffffffff168152602001600073ffffffffffffffffffffffffffffffffffffffff1681525090565b60405180608001604052806060815260200160608152602001600073ffffffffffffffffffffffffffffffffffffffff168152602001600081525090565b828054600181600116156101000203166002900490600052602060002090601f016020900481019282601f10611b9c57805160ff1916838001178555611bca565b82800160010185558215611bca579182015b82811115611bc9578251825591602001919060010190611bae565b5b509050611bd79190611bdb565b5090565b611bfd91905b80821115611bf9576000816000905550600101611be1565b5090565b9056fe53656e74696d656e742073686f756c6420657869737420666f722074686520676976656e206b65792e5068726173652073686f756c6420657869737420666f722074686520676976656e206b65792ea165627a7a72305820c7c78714c0242c973218ddab09c18c306f5fc58f16d564e6d472402b5dcbf8030029",
  "source": "pragma solidity >=0.5.0;\n\nimport \"./ERC20Interface.sol\";\n\ncontract Registry {\n  event PhraseCreated(address creator, bytes20 phrase);\n  event SentimentCreated(address creator, bytes20 sentiment);\n  event SentimentPinned(address expresser, bytes20 phrase, bytes20 sentiment);\n\n  struct Phrase {\n    string format;\n    string content;\n    address payable creator;\n    address payable beneficiary;\n    mapping(bytes20 => address[]) pinned;\n  }\n\n  struct Sentiment {\n    string format;\n    string content;\n    address token;\n    uint256 value;\n  }\n\n  mapping(bytes20 => Phrase) public phrases;\n  mapping(bytes20 => Sentiment) public sentiments;\n\n  function createPhrase(\n    string memory format,\n    string memory content,\n    address payable beneficiary\n  )\n    public\n  {\n    // Create a new phrase.\n    Phrase memory phrase = Phrase(\n      format,\n      content,\n      msg.sender,\n      beneficiary\n    );\n\n    // Create a unique key for the phrase and store it in the global map.\n    bytes20 key = phraseKey(phrase);\n    phrases[key] = phrase;\n\n    emit PhraseCreated(msg.sender, key);\n  }\n\n  function createSentiment(\n    string memory format,\n    string memory content,\n    address token,\n    uint256 value\n  )\n    public\n  {\n    // Create a new sentiment.\n    Sentiment memory sentiment = Sentiment(\n      format,\n      content,\n      token,\n      value\n    );\n\n    // Create a unique key for the sentiment and store it in the global map.\n    bytes20 key = sentimentKey(sentiment);\n    sentiments[key] = sentiment;\n\n    emit SentimentCreated(msg.sender, key);\n  }\n\n  function pinSentiment(\n    bytes20 phraseKey,\n    bytes20 sentimentKey\n  )\n    public\n    payable\n  {\n    // Verify that the phrase, and sentiment exist.\n    require(\n      phraseExists(phraseKey),\n      \"Phrase should exist for the given key.\"\n    );\n    require(\n      sentimentExists(sentimentKey),\n      \"Sentiment should exist for the given key.\"\n    );\n\n    // Transfer the sentiment's value to the phrases's creator or beneficiary.\n    Phrase memory phrase = phrases[phraseKey];\n    Sentiment memory sentiment = sentiments[sentimentKey];\n    if (phrase.beneficiary == address(0)) {\n      transfer(phrase.creator, sentiment.token, sentiment.value);\n    } else {\n      transfer(phrase.beneficiary, sentiment.token, sentiment.value);\n    }\n\n    // Pin the sentiment to a phrase under the msg.sender.\n    phrases[phraseKey].pinned[sentimentKey].push(msg.sender);\n\n    emit SentimentPinned(msg.sender, phraseKey, sentimentKey);\n  }\n\n  function transfer(\n    address payable receiver,\n    address tokenAddress,\n    uint256 amount\n  )\n    internal\n  {\n    if (tokenAddress == address(0)) {\n      receiver.transfer(amount);\n    } else {\n      ERC20Interface(tokenAddress).transferFrom(msg.sender, receiver, amount);\n    }\n  }\n\n  function phraseKey(\n    Phrase memory phrase\n  )\n    internal\n    pure\n    returns (bytes20)\n  {\n    return bytes20(sha256(abi.encodePacked(\n      phrase.format, \"-\",\n      phrase.content, \"-\",\n      phrase.creator, \"-\",\n      phrase.beneficiary\n    )));\n  }\n\n  function sentimentKey(\n    Sentiment memory sentiment\n  )\n    internal\n    pure\n    returns (bytes20)\n  {\n    return bytes20(sha256(abi.encodePacked(\n      sentiment.format, \"-\",\n      sentiment.content, \"-\",\n      sentiment.token, \"-\",\n      sentiment.value\n    )));\n  }\n\n  function phraseExists(\n    bytes20 key\n  )\n    internal\n    view\n    returns (bool)\n  {\n    return bytes(phrases[key].content).length != 0;\n  }\n\n  function sentimentExists(\n    bytes20 key\n  )\n    internal\n    view\n    returns (bool)\n  {\n    return bytes(sentiments[key].content).length != 0;\n  }\n}\n",
  "sourcePath": "/home/grant/workshop/phrase/solidity-contracts/contracts/Registry.sol",
  "compiler": {
    "name": "solc",
    "version": "0.5.8+commit.23d335f2.Emscripten.clang"
  },
  "schemaVersion": "3.0.11",
  "updatedAt": "2019-12-05T02:56:56.210Z",
  "devdoc": {
    "methods": {}
  },
  "userdoc": {
    "methods": {}
  }
}