{
  "contractName": "InternalRegistry",
  "abi": [
    {
      "constant": false,
      "inputs": [
        {
          "name": "content",
          "type": "string"
        }
      ],
      "name": "createProfile",
      "outputs": [],
      "payable": false,
      "stateMutability": "nonpayable",
      "type": "function"
    },
    {
      "constant": false,
      "inputs": [
        {
          "name": "content",
          "type": "string"
        },
        {
          "name": "beneficiary",
          "type": "address"
        }
      ],
      "name": "createPhrase",
      "outputs": [
        {
          "name": "",
          "type": "bytes32"
        }
      ],
      "payable": false,
      "stateMutability": "nonpayable",
      "type": "function"
    },
    {
      "constant": true,
      "inputs": [
        {
          "name": "",
          "type": "bytes32"
        }
      ],
      "name": "expressedSentiments",
      "outputs": [
        {
          "name": "phrase",
          "type": "bytes32"
        },
        {
          "name": "sentiment",
          "type": "bytes32"
        }
      ],
      "payable": false,
      "stateMutability": "view",
      "type": "function"
    },
    {
      "constant": true,
      "inputs": [
        {
          "name": "",
          "type": "address"
        }
      ],
      "name": "profiles",
      "outputs": [
        {
          "name": "content",
          "type": "string"
        }
      ],
      "payable": false,
      "stateMutability": "view",
      "type": "function"
    },
    {
      "constant": false,
      "inputs": [
        {
          "name": "content",
          "type": "string"
        },
        {
          "name": "token",
          "type": "address"
        },
        {
          "name": "value",
          "type": "uint256"
        }
      ],
      "name": "createSentiment",
      "outputs": [
        {
          "name": "",
          "type": "bytes32"
        }
      ],
      "payable": false,
      "stateMutability": "nonpayable",
      "type": "function"
    },
    {
      "constant": true,
      "inputs": [
        {
          "name": "",
          "type": "bytes32"
        }
      ],
      "name": "sentiments",
      "outputs": [
        {
          "name": "content",
          "type": "string"
        },
        {
          "name": "token",
          "type": "address"
        },
        {
          "name": "value",
          "type": "uint256"
        }
      ],
      "payable": false,
      "stateMutability": "view",
      "type": "function"
    },
    {
      "constant": true,
      "inputs": [
        {
          "name": "",
          "type": "bytes32"
        }
      ],
      "name": "phrases",
      "outputs": [
        {
          "name": "content",
          "type": "string"
        },
        {
          "name": "creator",
          "type": "address"
        },
        {
          "name": "beneficiary",
          "type": "address"
        }
      ],
      "payable": false,
      "stateMutability": "view",
      "type": "function"
    },
    {
      "constant": false,
      "inputs": [
        {
          "name": "phraseKey",
          "type": "bytes32"
        },
        {
          "name": "sentimentKey",
          "type": "bytes32"
        }
      ],
      "name": "expressSentiment",
      "outputs": [
        {
          "name": "",
          "type": "bytes32"
        }
      ],
      "payable": true,
      "stateMutability": "payable",
      "type": "function"
    },
    {
      "constant": false,
      "inputs": [
        {
          "name": "receiver",
          "type": "address"
        },
        {
          "name": "token",
          "type": "address"
        },
        {
          "name": "amount",
          "type": "uint256"
        }
      ],
      "name": "_transfer",
      "outputs": [],
      "payable": false,
      "stateMutability": "nonpayable",
      "type": "function"
    }
  ],
  "bytecode": "0x608060405234801561001057600080fd5b50611c0a806100206000396000f3fe6080604052600436106100865760003560e01c8063bbe1562711610059578063bbe1562714610320578063bf1a674f146103ea578063dcb40ac7146104f0578063e280ca71146105de578063f9fbffd7146106f857610086565b806330e0789e1461008b578063334c3f0e146101065780636647a4ab146101ce5780639c2f7b76146102ca575b600080fd5b34801561009757600080fd5b50610104600480360360608110156100ae57600080fd5b81019080803573ffffffffffffffffffffffffffffffffffffffff169060200190929190803573ffffffffffffffffffffffffffffffffffffffff16906020019092919080359060200190929190505050610744565b005b34801561011257600080fd5b506101cc6004803603602081101561012957600080fd5b810190808035906020019064010000000081111561014657600080fd5b82018360208201111561015857600080fd5b8035906020019184600183028401116401000000008311171561017a57600080fd5b91908080601f016020809104026020016040519081016040528093929190818152602001838380828437600081840152601f19601f820116905080830192505050505050509192919290505050610754565b005b3480156101da57600080fd5b506102b4600480360360408110156101f157600080fd5b810190808035906020019064010000000081111561020e57600080fd5b82018360208201111561022057600080fd5b8035906020019184600183028401116401000000008311171561024257600080fd5b91908080601f016020809104026020016040519081016040528093929190818152602001838380828437600081840152601f19601f820116905080830192505050505050509192919290803573ffffffffffffffffffffffffffffffffffffffff1690602001909291905050506108c9565b6040518082815260200191505060405180910390f35b3480156102d657600080fd5b50610303600480360360208110156102ed57600080fd5b8101908080359060200190929190505050610abf565b604051808381526020018281526020019250505060405180910390f35b34801561032c57600080fd5b5061036f6004803603602081101561034357600080fd5b81019080803573ffffffffffffffffffffffffffffffffffffffff169060200190929190505050610ae3565b6040518080602001828103825283818151815260200191508051906020019080838360005b838110156103af578082015181840152602081019050610394565b50505050905090810190601f1680156103dc5780820380516001836020036101000a031916815260200191505b509250505060405180910390f35b3480156103f657600080fd5b506104da6004803603606081101561040d57600080fd5b810190808035906020019064010000000081111561042a57600080fd5b82018360208201111561043c57600080fd5b8035906020019184600183028401116401000000008311171561045e57600080fd5b91908080601f016020809104026020016040519081016040528093929190818152602001838380828437600081840152601f19601f820116905080830192505050505050509192919290803573ffffffffffffffffffffffffffffffffffffffff16906020019092919080359060200190929190505050610b99565b6040518082815260200191505060405180910390f35b3480156104fc57600080fd5b506105296004803603602081101561051357600080fd5b8101908080359060200190929190505050610c74565b60405180806020018473ffffffffffffffffffffffffffffffffffffffff1673ffffffffffffffffffffffffffffffffffffffff168152602001838152602001828103825285818151815260200191508051906020019080838360005b838110156105a1578082015181840152602081019050610586565b50505050905090810190601f1680156105ce5780820380516001836020036101000a031916815260200191505b5094505050505060405180910390f35b3480156105ea57600080fd5b506106176004803603602081101561060157600080fd5b8101908080359060200190929190505050610d56565b60405180806020018473ffffffffffffffffffffffffffffffffffffffff1673ffffffffffffffffffffffffffffffffffffffff1681526020018373ffffffffffffffffffffffffffffffffffffffff1673ffffffffffffffffffffffffffffffffffffffff168152602001828103825285818151815260200191508051906020019080838360005b838110156106bb5780820151818401526020810190506106a0565b50505050905090810190601f1680156106e85780820380516001836020036101000a031916815260200191505b5094505050505060405180910390f35b61072e6004803603604081101561070e57600080fd5b810190808035906020019092919080359060200190929190505050610e58565b6040518082815260200191505060405180910390f35b61074f83838361135e565b505050565b61075d336113e0565b156107b3576040517f08c379a0000000000000000000000000000000000000000000000000000000008152600401808060200182810382526030815260200180611b836030913960400191505060405180910390fd5b604051806060016040528082815260200160006040519080825280602002602001820160405280156107f45781602001602082028038833980820191505090505b508152602001600060405190808252806020026020018201604052801561082a5781602001602082028038833980820191505090505b508152506000803373ffffffffffffffffffffffffffffffffffffffff1673ffffffffffffffffffffffffffffffffffffffff1681526020019081526020016000206000820151816000019080519060200190610888929190611978565b5060208201518160010190805190602001906108a59291906119f8565b5060408201518160020190805190602001906108c29291906119f8565b5090505050565b60006108d4336113e0565b610929576040517f08c379a000000000000000000000000000000000000000000000000000000000815260040180806020018281038252602c815260200180611bb3602c913960400191505060405180910390fd5b610931611a45565b60405180606001604052808581526020013373ffffffffffffffffffffffffffffffffffffffff1681526020018473ffffffffffffffffffffffffffffffffffffffff168152509050600061098582611442565b9050816001600083815260200190815260200160002060008201518160000190805190602001906109b7929190611978565b5060208201518160010160006101000a81548173ffffffffffffffffffffffffffffffffffffffff021916908373ffffffffffffffffffffffffffffffffffffffff16021790555060408201518160020160006101000a81548173ffffffffffffffffffffffffffffffffffffffff021916908373ffffffffffffffffffffffffffffffffffffffff1602179055509050506000803373ffffffffffffffffffffffffffffffffffffffff1673ffffffffffffffffffffffffffffffffffffffff168152602001908152602001600020600101819080600181540180825580915050906001820390600052602060002001600090919290919091505550809250505092915050565b60036020528060005260406000206000915090508060000154908060010154905082565b6000602052806000526040600020600091509050806000018054600181600116156101000203166002900480601f016020809104026020016040519081016040528092919081815260200182805460018160011615610100020316600290048015610b8f5780601f10610b6457610100808354040283529160200191610b8f565b820191906000526020600020905b815481529060010190602001808311610b7257829003601f168201915b5050505050905081565b6000610ba3611a92565b60405180606001604052808681526020018573ffffffffffffffffffffffffffffffffffffffff1681526020018481525090506000610be18261161d565b905081600260008381526020019081526020016000206000820151816000019080519060200190610c13929190611978565b5060208201518160010160006101000a81548173ffffffffffffffffffffffffffffffffffffffff021916908373ffffffffffffffffffffffffffffffffffffffff1602179055506040820151816002015590505080925050509392505050565b6002602052806000526040600020600091509050806000018054600181600116156101000203166002900480601f016020809104026020016040519081016040528092919081815260200182805460018160011615610100020316600290048015610d205780601f10610cf557610100808354040283529160200191610d20565b820191906000526020600020905b815481529060010190602001808311610d0357829003601f168201915b5050505050908060010160009054906101000a900473ffffffffffffffffffffffffffffffffffffffff16908060020154905083565b6001602052806000526040600020600091509050806000018054600181600116156101000203166002900480601f016020809104026020016040519081016040528092919081815260200182805460018160011615610100020316600290048015610e025780601f10610dd757610100808354040283529160200191610e02565b820191906000526020600020905b815481529060010190602001808311610de557829003601f168201915b5050505050908060010160009054906101000a900473ffffffffffffffffffffffffffffffffffffffff16908060020160009054906101000a900473ffffffffffffffffffffffffffffffffffffffff16905083565b6000610e63336113e0565b610eb8576040517f08c379a000000000000000000000000000000000000000000000000000000000815260040180806020018281038252602c815260200180611bb3602c913960400191505060405180910390fd5b610ec1836117c9565b610f16576040517f08c379a0000000000000000000000000000000000000000000000000000000008152600401808060200182810382526026815260200180611b5d6026913960400191505060405180910390fd5b610f1f82611800565b610f74576040517f08c379a0000000000000000000000000000000000000000000000000000000008152600401808060200182810382526029815260200180611b346029913960400191505060405180910390fd5b610f7c611ac9565b60405180604001604052808581526020018481525090506000610f9e82611837565b9050610fa981611935565b610fd957816003600083815260200190815260200160002060008201518160000155602082015181600101559050505b610fe1611a45565b60016000878152602001908152602001600020604051806060016040529081600082018054600181600116156101000203166002900480601f0160208091040260200160405190810160405280929190818152602001828054600181600116156101000203166002900480156110985780601f1061106d57610100808354040283529160200191611098565b820191906000526020600020905b81548152906001019060200180831161107b57829003601f168201915b505050505081526020016001820160009054906101000a900473ffffffffffffffffffffffffffffffffffffffff1673ffffffffffffffffffffffffffffffffffffffff1673ffffffffffffffffffffffffffffffffffffffff1681526020016002820160009054906101000a900473ffffffffffffffffffffffffffffffffffffffff1673ffffffffffffffffffffffffffffffffffffffff1673ffffffffffffffffffffffffffffffffffffffff16815250509050611157611a92565b60026000878152602001908152602001600020604051806060016040529081600082018054600181600116156101000203166002900480601f01602080910402602001604051908101604052809291908181526020018280546001816001161561010002031660029004801561120e5780601f106111e35761010080835404028352916020019161120e565b820191906000526020600020905b8154815290600101906020018083116111f157829003601f168201915b505050505081526020016001820160009054906101000a900473ffffffffffffffffffffffffffffffffffffffff1673ffffffffffffffffffffffffffffffffffffffff1673ffffffffffffffffffffffffffffffffffffffff1681526020016002820154815250509050600073ffffffffffffffffffffffffffffffffffffffff16826040015173ffffffffffffffffffffffffffffffffffffffff1614156112ce576112c982602001518260200151836040015161135e565b6112e6565b6112e582604001518260200151836040015161135e565b5b6000803373ffffffffffffffffffffffffffffffffffffffff1673ffffffffffffffffffffffffffffffffffffffff1681526020019081526020016000206002018390806001815401808255809150509060018203906000526020600020016000909192909190915055508294505050505092915050565b600073ffffffffffffffffffffffffffffffffffffffff168273ffffffffffffffffffffffffffffffffffffffff1614156113db578273ffffffffffffffffffffffffffffffffffffffff166108fc829081150290604051600060405180830381858888f193505050501580156113d9573d6000803e3d6000fd5b505b505050565b6000806000808473ffffffffffffffffffffffffffffffffffffffff1673ffffffffffffffffffffffffffffffffffffffff16815260200190815260200160002060000180546001816001161561010002031660029004905014159050919050565b600060028260000151836020015184604001516040516020018084805190602001908083835b6020831061148b5780518252602082019150602081019050602083039250611468565b6001836020036101000a038019825116818451168082178552505050505050905001807f2d000000000000000000000000000000000000000000000000000000000000008152506001018373ffffffffffffffffffffffffffffffffffffffff1673ffffffffffffffffffffffffffffffffffffffff1660601b8152601401807f2d000000000000000000000000000000000000000000000000000000000000008152506001018273ffffffffffffffffffffffffffffffffffffffff1673ffffffffffffffffffffffffffffffffffffffff1660601b815260140193505050506040516020818303038152906040526040518082805190602001908083835b602083106115ae578051825260208201915060208101905060208303925061158b565b6001836020036101000a038019825116818451168082178552505050505050905001915050602060405180830381855afa1580156115f0573d6000803e3d6000fd5b5050506040513d602081101561160557600080fd5b81019080805190602001909291905050509050919050565b600060028260000151836020015184604001516040516020018084805190602001908083835b602083106116665780518252602082019150602081019050602083039250611643565b6001836020036101000a038019825116818451168082178552505050505050905001807f2d000000000000000000000000000000000000000000000000000000000000008152506001018373ffffffffffffffffffffffffffffffffffffffff1673ffffffffffffffffffffffffffffffffffffffff1660601b8152601401807f2d0000000000000000000000000000000000000000000000000000000000000081525060010182815260200193505050506040516020818303038152906040526040518082805190602001908083835b6020831061175a5780518252602082019150602081019050602083039250611737565b6001836020036101000a038019825116818451168082178552505050505050905001915050602060405180830381855afa15801561179c573d6000803e3d6000fd5b5050506040513d60208110156117b157600080fd5b81019080805190602001909291905050509050919050565b6000806001600084815260200190815260200160002060000180546001816001161561010002031660029004905014159050919050565b6000806002600084815260200190815260200160002060000180546001816001161561010002031660029004905014159050919050565b600060028260000151836020015160405160200180838152602001807f2d00000000000000000000000000000000000000000000000000000000000000815250600101828152602001925050506040516020818303038152906040526040518082805190602001908083835b602083106118c657805182526020820191506020810190506020830392506118a3565b6001836020036101000a038019825116818451168082178552505050505050905001915050602060405180830381855afa158015611908573d6000803e3d6000fd5b5050506040513d602081101561191d57600080fd5b81019080805190602001909291905050509050919050565b60008060036000848152602001908152602001600020600001541480611971575060006003600084815260200190815260200160002060010154145b9050919050565b828054600181600116156101000203166002900490600052602060002090601f016020900481019282601f106119b957805160ff19168380011785556119e7565b828001600101855582156119e7579182015b828111156119e65782518255916020019190600101906119cb565b5b5090506119f49190611ae9565b5090565b828054828255906000526020600020908101928215611a34579160200282015b82811115611a33578251825591602001919060010190611a18565b5b509050611a419190611b0e565b5090565b604051806060016040528060608152602001600073ffffffffffffffffffffffffffffffffffffffff168152602001600073ffffffffffffffffffffffffffffffffffffffff1681525090565b604051806060016040528060608152602001600073ffffffffffffffffffffffffffffffffffffffff168152602001600081525090565b604051806040016040528060008019168152602001600080191681525090565b611b0b91905b80821115611b07576000816000905550600101611aef565b5090565b90565b611b3091905b80821115611b2c576000816000905550600101611b14565b5090565b9056fe53656e74696d656e742073686f756c6420657869737420666f722074686520676976656e206b65792e5068726173652073686f756c6420657869737420666f722074686520676976656e206b65792e50726f66696c652073686f756c64206e6f7420657869737420666f7220746865206d6573736167652073656e6465722e50726f66696c652073686f756c6420657869737420666f7220746865206d6573736167652073656e6465722ea165627a7a72305820542833e0e814ef7d2d6d910c5ec4a41c79b82dbde44118590c941912dbe1d1340029",
  "source": "pragma solidity >=0.5.0;\n\nimport \"../Registry.sol\";\n\ncontract InternalRegistry is Registry {\n  function _transfer(\n    address payable receiver,\n    address token,\n    uint256 amount\n  )\n    public\n  {\n    super.transfer(receiver, token, amount);\n  }\n}\n",
  "sourcePath": "/home/grant/workshop/phrase/contracts/test/InternalRegistry.sol",
  "compiler": {
    "name": "solc",
    "version": "0.5.8+commit.23d335f2.Emscripten.clang"
  },
  "schemaVersion": "3.0.11",
  "updatedAt": "2019-08-05T14:05:17.092Z",
  "devdoc": {
    "methods": {}
  },
  "userdoc": {
    "methods": {}
  }
}