{
  "contractName": "Registry",
  "abi": [
    {
      "constant": true,
      "inputs": [
        {
          "name": "",
          "type": "bytes32"
        }
      ],
      "name": "expressedSentiments",
      "outputs": [
        {
          "name": "phrase",
          "type": "bytes32"
        },
        {
          "name": "sentiment",
          "type": "bytes32"
        }
      ],
      "payable": false,
      "stateMutability": "view",
      "type": "function"
    },
    {
      "constant": true,
      "inputs": [
        {
          "name": "",
          "type": "bytes32"
        }
      ],
      "name": "sentiments",
      "outputs": [
        {
          "name": "format",
          "type": "string"
        },
        {
          "name": "content",
          "type": "string"
        },
        {
          "name": "token",
          "type": "address"
        },
        {
          "name": "value",
          "type": "uint256"
        }
      ],
      "payable": false,
      "stateMutability": "view",
      "type": "function"
    },
    {
      "constant": true,
      "inputs": [
        {
          "name": "",
          "type": "bytes32"
        }
      ],
      "name": "phrases",
      "outputs": [
        {
          "name": "format",
          "type": "string"
        },
        {
          "name": "content",
          "type": "string"
        },
        {
          "name": "creator",
          "type": "address"
        },
        {
          "name": "beneficiary",
          "type": "address"
        }
      ],
      "payable": false,
      "stateMutability": "view",
      "type": "function"
    },
    {
      "anonymous": false,
      "inputs": [
        {
          "indexed": false,
          "name": "creator",
          "type": "address"
        },
        {
          "indexed": false,
          "name": "phrase",
          "type": "bytes32"
        }
      ],
      "name": "PhraseCreated",
      "type": "event"
    },
    {
      "anonymous": false,
      "inputs": [
        {
          "indexed": false,
          "name": "creator",
          "type": "address"
        },
        {
          "indexed": false,
          "name": "sentiment",
          "type": "bytes32"
        }
      ],
      "name": "SentimentCreated",
      "type": "event"
    },
    {
      "anonymous": false,
      "inputs": [
        {
          "indexed": false,
          "name": "expresser",
          "type": "address"
        },
        {
          "indexed": false,
          "name": "expressedSentiment",
          "type": "bytes32"
        }
      ],
      "name": "SentimentExpressed",
      "type": "event"
    },
    {
      "anonymous": false,
      "inputs": [
        {
          "indexed": false,
          "name": "creator",
          "type": "address"
        }
      ],
      "name": "ProfileCreated",
      "type": "event"
    },
    {
      "constant": false,
      "inputs": [
        {
          "name": "format",
          "type": "string"
        },
        {
          "name": "content",
          "type": "string"
        }
      ],
      "name": "updateProfile",
      "outputs": [],
      "payable": false,
      "stateMutability": "nonpayable",
      "type": "function"
    },
    {
      "constant": false,
      "inputs": [
        {
          "name": "format",
          "type": "string"
        },
        {
          "name": "content",
          "type": "string"
        },
        {
          "name": "beneficiary",
          "type": "address"
        }
      ],
      "name": "createPhrase",
      "outputs": [],
      "payable": false,
      "stateMutability": "nonpayable",
      "type": "function"
    },
    {
      "constant": false,
      "inputs": [
        {
          "name": "format",
          "type": "string"
        },
        {
          "name": "content",
          "type": "string"
        },
        {
          "name": "token",
          "type": "address"
        },
        {
          "name": "value",
          "type": "uint256"
        }
      ],
      "name": "createSentiment",
      "outputs": [],
      "payable": false,
      "stateMutability": "nonpayable",
      "type": "function"
    },
    {
      "constant": false,
      "inputs": [
        {
          "name": "phraseKey",
          "type": "bytes32"
        },
        {
          "name": "sentimentKey",
          "type": "bytes32"
        }
      ],
      "name": "expressSentiment",
      "outputs": [],
      "payable": true,
      "stateMutability": "payable",
      "type": "function"
    },
    {
      "constant": true,
      "inputs": [
        {
          "name": "owner",
          "type": "address"
        }
      ],
      "name": "getProfile",
      "outputs": [
        {
          "name": "",
          "type": "string"
        },
        {
          "name": "",
          "type": "string"
        },
        {
          "name": "",
          "type": "bytes32[]"
        },
        {
          "name": "",
          "type": "bytes32[]"
        }
      ],
      "payable": false,
      "stateMutability": "view",
      "type": "function"
    }
  ],
  "bytecode": "0x608060405234801561001057600080fd5b50612541806100206000396000f3fe60806040526004361061007b5760003560e01c8063c9d3cc6a1161004e578063c9d3cc6a146105a4578063dcb40ac714610703578063e280ca711461085d578063f9fbffd7146109e35761007b565b80630f53a470146100805780634a6f324d146102465780639c2f7b76146103c5578063a13d0da71461041b575b600080fd5b34801561008c57600080fd5b506100cf600480360360208110156100a357600080fd5b81019080803573ffffffffffffffffffffffffffffffffffffffff169060200190929190505050610a1b565b6040518080602001806020018060200180602001858103855289818151815260200191508051906020019080838360005b8381101561011b578082015181840152602081019050610100565b50505050905090810190601f1680156101485780820380516001836020036101000a031916815260200191505b50858103845288818151815260200191508051906020019080838360005b83811015610181578082015181840152602081019050610166565b50505050905090810190601f1680156101ae5780820380516001836020036101000a031916815260200191505b50858103835287818151815260200191508051906020019060200280838360005b838110156101ea5780820151818401526020810190506101cf565b50505050905001858103825286818151815260200191508051906020019060200280838360005b8381101561022c578082015181840152602081019050610211565b505050509050019850505050505050505060405180910390f35b34801561025257600080fd5b506103c36004803603606081101561026957600080fd5b810190808035906020019064010000000081111561028657600080fd5b82018360208201111561029857600080fd5b803590602001918460018302840111640100000000831117156102ba57600080fd5b91908080601f016020809104026020016040519081016040528093929190818152602001838380828437600081840152601f19601f8201169050808301925050505050505091929192908035906020019064010000000081111561031d57600080fd5b82018360208201111561032f57600080fd5b8035906020019184600183028401116401000000008311171561035157600080fd5b91908080601f016020809104026020016040519081016040528093929190818152602001838380828437600081840152601f19601f820116905080830192505050505050509192919290803573ffffffffffffffffffffffffffffffffffffffff169060200190929190505050610d10565b005b3480156103d157600080fd5b506103fe600480360360208110156103e857600080fd5b8101908080359060200190929190505050610f30565b604051808381526020018281526020019250505060405180910390f35b34801561042757600080fd5b506105a26004803603608081101561043e57600080fd5b810190808035906020019064010000000081111561045b57600080fd5b82018360208201111561046d57600080fd5b8035906020019184600183028401116401000000008311171561048f57600080fd5b91908080601f016020809104026020016040519081016040528093929190818152602001838380828437600081840152601f19601f820116905080830192505050505050509192919290803590602001906401000000008111156104f257600080fd5b82018360208201111561050457600080fd5b8035906020019184600183028401116401000000008311171561052657600080fd5b91908080601f016020809104026020016040519081016040528093929190818152602001838380828437600081840152601f19601f820116905080830192505050505050509192919290803573ffffffffffffffffffffffffffffffffffffffff16906020019092919080359060200190929190505050610f54565b005b3480156105b057600080fd5b50610701600480360360408110156105c757600080fd5b81019080803590602001906401000000008111156105e457600080fd5b8201836020820111156105f657600080fd5b8035906020019184600183028401116401000000008311171561061857600080fd5b91908080601f016020809104026020016040519081016040528093929190818152602001838380828437600081840152601f19601f8201169050808301925050505050505091929192908035906020019064010000000081111561067b57600080fd5b82018360208201111561068d57600080fd5b803590602001918460018302840111640100000000831117156106af57600080fd5b91908080601f016020809104026020016040519081016040528093929190818152602001838380828437600081840152601f19601f8201169050808301925050505050505091929192905050506110b7565b005b34801561070f57600080fd5b5061073c6004803603602081101561072657600080fd5b81019080803590602001909291905050506111ca565b6040518080602001806020018573ffffffffffffffffffffffffffffffffffffffff1673ffffffffffffffffffffffffffffffffffffffff168152602001848152602001838103835287818151815260200191508051906020019080838360005b838110156107b857808201518184015260208101905061079d565b50505050905090810190601f1680156107e55780820380516001836020036101000a031916815260200191505b50838103825286818151815260200191508051906020019080838360005b8381101561081e578082015181840152602081019050610803565b50505050905090810190601f16801561084b5780820380516001836020036101000a031916815260200191505b50965050505050505060405180910390f35b34801561086957600080fd5b506108966004803603602081101561088057600080fd5b810190808035906020019092919050505061134a565b6040518080602001806020018573ffffffffffffffffffffffffffffffffffffffff1673ffffffffffffffffffffffffffffffffffffffff1681526020018473ffffffffffffffffffffffffffffffffffffffff1673ffffffffffffffffffffffffffffffffffffffff168152602001838103835287818151815260200191508051906020019080838360005b8381101561093e578082015181840152602081019050610923565b50505050905090810190601f16801561096b5780820380516001836020036101000a031916815260200191505b50838103825286818151815260200191508051906020019080838360005b838110156109a4578082015181840152602081019050610989565b50505050905090810190601f1680156109d15780820380516001836020036101000a031916815260200191505b50965050505050505060405180910390f35b610a19600480360360408110156109f957600080fd5b8101908080359060200190929190803590602001909291905050506114ea565b005b6060806060806000808673ffffffffffffffffffffffffffffffffffffffff1673ffffffffffffffffffffffffffffffffffffffff1681526020019081526020016000206000016000808773ffffffffffffffffffffffffffffffffffffffff1673ffffffffffffffffffffffffffffffffffffffff1681526020019081526020016000206001016000808873ffffffffffffffffffffffffffffffffffffffff1673ffffffffffffffffffffffffffffffffffffffff1681526020019081526020016000206002016000808973ffffffffffffffffffffffffffffffffffffffff1673ffffffffffffffffffffffffffffffffffffffff168152602001908152602001600020600301838054600181600116156101000203166002900480601f016020809104026020016040519081016040528092919081815260200182805460018160011615610100020316600290048015610bba5780601f10610b8f57610100808354040283529160200191610bba565b820191906000526020600020905b815481529060010190602001808311610b9d57829003601f168201915b50505050509350828054600181600116156101000203166002900480601f016020809104026020016040519081016040528092919081815260200182805460018160011615610100020316600290048015610c565780601f10610c2b57610100808354040283529160200191610c56565b820191906000526020600020905b815481529060010190602001808311610c3957829003601f168201915b5050505050925081805480602002602001604051908101604052809291908181526020018280548015610ca857602002820191906000526020600020905b815481526020019060010190808311610c94575b5050505050915080805480602002602001604051908101604052809291908181526020018280548015610cfa57602002820191906000526020600020905b815481526020019060010190808311610ce6575b5050505050905093509350935093509193509193565b610d186122ef565b60405180608001604052808581526020018481526020013373ffffffffffffffffffffffffffffffffffffffff1681526020018373ffffffffffffffffffffffffffffffffffffffff1681525090506000610d7282611b3a565b905081600160008381526020019081526020016000206000820151816000019080519060200190610da4929190612343565b506020820151816001019080519060200190610dc1929190612343565b5060408201518160020160006101000a81548173ffffffffffffffffffffffffffffffffffffffff021916908373ffffffffffffffffffffffffffffffffffffffff16021790555060608201518160030160006101000a81548173ffffffffffffffffffffffffffffffffffffffff021916908373ffffffffffffffffffffffffffffffffffffffff1602179055509050506000803373ffffffffffffffffffffffffffffffffffffffff1673ffffffffffffffffffffffffffffffffffffffff1681526020019081526020016000206002018190806001815401808255809150509060018203906000526020600020016000909192909190915055507f27f10c0c2bc5901c646cf059d82e6a8c2b2a8afec16d180a49a02175382da4053382604051808373ffffffffffffffffffffffffffffffffffffffff1673ffffffffffffffffffffffffffffffffffffffff1681526020018281526020019250505060405180910390a15050505050565b60036020528060005260406000206000915090508060000154908060010154905082565b610f5c6123c3565b60405180608001604052808681526020018581526020018473ffffffffffffffffffffffffffffffffffffffff1681526020018381525090506000610fa082611d94565b905081600260008381526020019081526020016000206000820151816000019080519060200190610fd2929190612343565b506020820151816001019080519060200190610fef929190612343565b5060408201518160020160006101000a81548173ffffffffffffffffffffffffffffffffffffffff021916908373ffffffffffffffffffffffffffffffffffffffff160217905550606082015181600301559050507fbcb9b6f7ead1c52e14b104c3ce24e29708f397056aaff01e0efdd77c73e897573382604051808373ffffffffffffffffffffffffffffffffffffffff1673ffffffffffffffffffffffffffffffffffffffff1681526020018281526020019250505060405180910390a1505050505050565b816000803373ffffffffffffffffffffffffffffffffffffffff1673ffffffffffffffffffffffffffffffffffffffff168152602001908152602001600020600001908051906020019061110c929190612401565b50806000803373ffffffffffffffffffffffffffffffffffffffff1673ffffffffffffffffffffffffffffffffffffffff1681526020019081526020016000206001019080519060200190611162929190612401565b507ff10ec97e920cde75887622583772c637595a40b1f7777c18e51ea36cd127475c33604051808273ffffffffffffffffffffffffffffffffffffffff1673ffffffffffffffffffffffffffffffffffffffff16815260200191505060405180910390a15050565b6002602052806000526040600020600091509050806000018054600181600116156101000203166002900480601f0160208091040260200160405190810160405280929190818152602001828054600181600116156101000203166002900480156112765780601f1061124b57610100808354040283529160200191611276565b820191906000526020600020905b81548152906001019060200180831161125957829003601f168201915b505050505090806001018054600181600116156101000203166002900480601f0160208091040260200160405190810160405280929190818152602001828054600181600116156101000203166002900480156113145780601f106112e957610100808354040283529160200191611314565b820191906000526020600020905b8154815290600101906020018083116112f757829003601f168201915b5050505050908060020160009054906101000a900473ffffffffffffffffffffffffffffffffffffffff16908060030154905084565b6001602052806000526040600020600091509050806000018054600181600116156101000203166002900480601f0160208091040260200160405190810160405280929190818152602001828054600181600116156101000203166002900480156113f65780601f106113cb576101008083540402835291602001916113f6565b820191906000526020600020905b8154815290600101906020018083116113d957829003601f168201915b505050505090806001018054600181600116156101000203166002900480601f0160208091040260200160405190810160405280929190818152602001828054600181600116156101000203166002900480156114945780601f1061146957610100808354040283529160200191611494565b820191906000526020600020905b81548152906001019060200180831161147757829003601f168201915b5050505050908060020160009054906101000a900473ffffffffffffffffffffffffffffffffffffffff16908060030160009054906101000a900473ffffffffffffffffffffffffffffffffffffffff16905084565b6114f382611fbf565b611548576040517f08c379a00000000000000000000000000000000000000000000000000000000081526004018080602001828103825260268152602001806124f06026913960400191505060405180910390fd5b61155181611ff6565b6115a6576040517f08c379a00000000000000000000000000000000000000000000000000000000081526004018080602001828103825260298152602001806124c76029913960400191505060405180910390fd5b6115ae612481565b604051806040016040528084815260200183815250905060006115d08261202d565b90506115db8161212b565b61160b57816003600083815260200190815260200160002060008201518160000155602082015181600101559050505b6116136122ef565b60016000868152602001908152602001600020604051806080016040529081600082018054600181600116156101000203166002900480601f0160208091040260200160405190810160405280929190818152602001828054600181600116156101000203166002900480156116ca5780601f1061169f576101008083540402835291602001916116ca565b820191906000526020600020905b8154815290600101906020018083116116ad57829003601f168201915b50505050508152602001600182018054600181600116156101000203166002900480601f01602080910402602001604051908101604052809291908181526020018280546001816001161561010002031660029004801561176c5780601f106117415761010080835404028352916020019161176c565b820191906000526020600020905b81548152906001019060200180831161174f57829003601f168201915b505050505081526020016002820160009054906101000a900473ffffffffffffffffffffffffffffffffffffffff1673ffffffffffffffffffffffffffffffffffffffff1673ffffffffffffffffffffffffffffffffffffffff1681526020016003820160009054906101000a900473ffffffffffffffffffffffffffffffffffffffff1673ffffffffffffffffffffffffffffffffffffffff1673ffffffffffffffffffffffffffffffffffffffff1681525050905061182b6123c3565b60026000868152602001908152602001600020604051806080016040529081600082018054600181600116156101000203166002900480601f0160208091040260200160405190810160405280929190818152602001828054600181600116156101000203166002900480156118e25780601f106118b7576101008083540402835291602001916118e2565b820191906000526020600020905b8154815290600101906020018083116118c557829003601f168201915b50505050508152602001600182018054600181600116156101000203166002900480601f0160208091040260200160405190810160405280929190818152602001828054600181600116156101000203166002900480156119845780601f1061195957610100808354040283529160200191611984565b820191906000526020600020905b81548152906001019060200180831161196757829003601f168201915b505050505081526020016002820160009054906101000a900473ffffffffffffffffffffffffffffffffffffffff1673ffffffffffffffffffffffffffffffffffffffff1673ffffffffffffffffffffffffffffffffffffffff1681526020016003820154815250509050600073ffffffffffffffffffffffffffffffffffffffff16826060015173ffffffffffffffffffffffffffffffffffffffff161415611a4457611a3f826040015182604001518360600151612171565b611a5c565b611a5b826060015182604001518360600151612171565b5b6000803373ffffffffffffffffffffffffffffffffffffffff1673ffffffffffffffffffffffffffffffffffffffff1681526020019081526020016000206003018390806001815401808255809150509060018203906000526020600020016000909192909190915055507f428df8e4a4bdea47e2342548e0ddaab8416a7f3e7b818a28733250e1a2a151853384604051808373ffffffffffffffffffffffffffffffffffffffff1673ffffffffffffffffffffffffffffffffffffffff1681526020018281526020019250505060405180910390a1505050505050565b6000600282600001518360200151846040015185606001516040516020018085805190602001908083835b60208310611b885780518252602082019150602081019050602083039250611b65565b6001836020036101000a038019825116818451168082178552505050505050905001807f2d0000000000000000000000000000000000000000000000000000000000000081525060010184805190602001908083835b60208310611c015780518252602082019150602081019050602083039250611bde565b6001836020036101000a038019825116818451168082178552505050505050905001807f2d000000000000000000000000000000000000000000000000000000000000008152506001018373ffffffffffffffffffffffffffffffffffffffff1673ffffffffffffffffffffffffffffffffffffffff1660601b8152601401807f2d000000000000000000000000000000000000000000000000000000000000008152506001018273ffffffffffffffffffffffffffffffffffffffff1673ffffffffffffffffffffffffffffffffffffffff1660601b81526014019450505050506040516020818303038152906040526040518082805190602001908083835b60208310611d255780518252602082019150602081019050602083039250611d02565b6001836020036101000a038019825116818451168082178552505050505050905001915050602060405180830381855afa158015611d67573d6000803e3d6000fd5b5050506040513d6020811015611d7c57600080fd5b81019080805190602001909291905050509050919050565b6000600282600001518360200151846040015185606001516040516020018085805190602001908083835b60208310611de25780518252602082019150602081019050602083039250611dbf565b6001836020036101000a038019825116818451168082178552505050505050905001807f2d0000000000000000000000000000000000000000000000000000000000000081525060010184805190602001908083835b60208310611e5b5780518252602082019150602081019050602083039250611e38565b6001836020036101000a038019825116818451168082178552505050505050905001807f2d000000000000000000000000000000000000000000000000000000000000008152506001018373ffffffffffffffffffffffffffffffffffffffff1673ffffffffffffffffffffffffffffffffffffffff1660601b8152601401807f2d000000000000000000000000000000000000000000000000000000000000008152506001018281526020019450505050506040516020818303038152906040526040518082805190602001908083835b60208310611f505780518252602082019150602081019050602083039250611f2d565b6001836020036101000a038019825116818451168082178552505050505050905001915050602060405180830381855afa158015611f92573d6000803e3d6000fd5b5050506040513d6020811015611fa757600080fd5b81019080805190602001909291905050509050919050565b6000806001600084815260200190815260200160002060010180546001816001161561010002031660029004905014159050919050565b6000806002600084815260200190815260200160002060010180546001816001161561010002031660029004905014159050919050565b600060028260000151836020015160405160200180838152602001807f2d00000000000000000000000000000000000000000000000000000000000000815250600101828152602001925050506040516020818303038152906040526040518082805190602001908083835b602083106120bc5780518252602082019150602081019050602083039250612099565b6001836020036101000a038019825116818451168082178552505050505050905001915050602060405180830381855afa1580156120fe573d6000803e3d6000fd5b5050506040513d602081101561211357600080fd5b81019080805190602001909291905050509050919050565b60008060036000848152602001908152602001600020600001541415801561216a57506000600360008481526020019081526020016000206001015414155b9050919050565b600073ffffffffffffffffffffffffffffffffffffffff168273ffffffffffffffffffffffffffffffffffffffff1614156121f2578273ffffffffffffffffffffffffffffffffffffffff166108fc829081150290604051600060405180830381858888f193505050501580156121ec573d6000803e3d6000fd5b506122ea565b8173ffffffffffffffffffffffffffffffffffffffff166323b872dd3385846040518463ffffffff1660e01b8152600401808473ffffffffffffffffffffffffffffffffffffffff1673ffffffffffffffffffffffffffffffffffffffff1681526020018373ffffffffffffffffffffffffffffffffffffffff1673ffffffffffffffffffffffffffffffffffffffff1681526020018281526020019350505050602060405180830381600087803b1580156122ad57600080fd5b505af11580156122c1573d6000803e3d6000fd5b505050506040513d60208110156122d757600080fd5b8101908080519060200190929190505050505b505050565b60405180608001604052806060815260200160608152602001600073ffffffffffffffffffffffffffffffffffffffff168152602001600073ffffffffffffffffffffffffffffffffffffffff1681525090565b828054600181600116156101000203166002900490600052602060002090601f016020900481019282601f1061238457805160ff19168380011785556123b2565b828001600101855582156123b2579182015b828111156123b1578251825591602001919060010190612396565b5b5090506123bf91906124a1565b5090565b60405180608001604052806060815260200160608152602001600073ffffffffffffffffffffffffffffffffffffffff168152602001600081525090565b828054600181600116156101000203166002900490600052602060002090601f016020900481019282601f1061244257805160ff1916838001178555612470565b82800160010185558215612470579182015b8281111561246f578251825591602001919060010190612454565b5b50905061247d91906124a1565b5090565b604051806040016040528060008019168152602001600080191681525090565b6124c391905b808211156124bf5760008160009055506001016124a7565b5090565b9056fe53656e74696d656e742073686f756c6420657869737420666f722074686520676976656e206b65792e5068726173652073686f756c6420657869737420666f722074686520676976656e206b65792ea165627a7a72305820d02f2d0f7aee61d17cf3cc0161530f0bcc4bb24055f388412d2a62742478aee00029",
  "source": "pragma solidity >=0.5.0;\n\nimport \"./ERC20Interface.sol\";\n\ncontract Registry {\n  event PhraseCreated(address creator, bytes32 phrase);\n  event SentimentCreated(address creator, bytes32 sentiment);\n  event SentimentExpressed(address expresser, bytes32 expressedSentiment);\n  event ProfileCreated(address creator);\n\n  struct Phrase {\n    string format;\n    string content;\n    address payable creator;\n    address payable beneficiary;\n  }\n\n  struct Sentiment {\n    string format;\n    string content;\n    address token;\n    uint256 value;\n  }\n\n  struct ExpressedSentiment {\n    bytes32 phrase;\n    bytes32 sentiment;\n  }\n\n  struct Profile {\n    string format;\n    string content;\n    bytes32[] phrases;\n    bytes32[] expressedSentiments;\n  }\n\n  mapping(address => Profile) profiles; // Accessed by a getted due to limitations with returing lists.\n  mapping(bytes32 => Phrase) public phrases;\n  mapping(bytes32 => Sentiment) public sentiments;\n  mapping(bytes32 => ExpressedSentiment) public expressedSentiments;\n\n  function updateProfile(\n    string memory format,\n    string memory content\n  )\n    public\n  {\n    // Update the profile's format and content.\n    profiles[msg.sender].format = format;\n    profiles[msg.sender].content = content;\n\n    emit ProfileCreated(msg.sender);\n  }\n\n  function createPhrase(\n    string memory format,\n    string memory content,\n    address payable beneficiary\n  )\n    public\n  {\n    // Create a new phrase.\n    Phrase memory phrase = Phrase(\n      format,\n      content,\n      msg.sender,\n      beneficiary\n    );\n\n    // Create a unique key for the phrase and store it in the global map.\n    bytes32 key = hashPhrase(phrase);\n    phrases[key] = phrase;\n    profiles[msg.sender].phrases.push(key);\n\n    emit PhraseCreated(msg.sender, key);\n  }\n\n  function createSentiment(\n    string memory format,\n    string memory content,\n    address token,\n    uint256 value\n  )\n    public\n  {\n    // Create a new sentiment.\n    Sentiment memory sentiment = Sentiment(\n      format,\n      content,\n      token,\n      value\n    );\n\n    // Create a unique key for the sentiment and store it in the global map.\n    bytes32 key = hashSentiment(sentiment);\n    sentiments[key] = sentiment;\n\n    emit SentimentCreated(msg.sender, key);\n  }\n\n  function expressSentiment(\n    bytes32 phraseKey,\n    bytes32 sentimentKey\n  )\n    public\n    payable\n  {\n    // Verify that the phrase, and sentiment exist.\n    require(\n      phraseExists(phraseKey),\n      \"Phrase should exist for the given key.\"\n    );\n    require(\n      sentimentExists(sentimentKey),\n      \"Sentiment should exist for the given key.\"\n    );\n\n    // Create a new expressed sentiment\n    ExpressedSentiment memory expressedSentiment = ExpressedSentiment(\n      phraseKey,\n      sentimentKey\n    );\n\n    // Store the expressed sentiment in the global map, if it isn't already.\n    bytes32 expressedSentimentKey = hashExpressedSentiment(expressedSentiment);\n    if(!expressedSentimentExists(expressedSentimentKey)) {\n      expressedSentiments[expressedSentimentKey] = expressedSentiment;\n    }\n\n    // Transfer the sentiment's value to the phrases's creator or beneficiary.\n    Phrase memory phrase = phrases[phraseKey];\n    Sentiment memory sentiment = sentiments[sentimentKey];\n    if (phrase.beneficiary == address(0)) {\n      transfer(phrase.creator, sentiment.token, sentiment.value);\n    } else {\n      transfer(phrase.beneficiary, sentiment.token, sentiment.value);\n    }\n\n    // Associate the expressed sentiment with the profile.\n    profiles[msg.sender].expressedSentiments.push(expressedSentimentKey);\n\n    emit SentimentExpressed(msg.sender, expressedSentimentKey);\n  }\n\n  function transfer(\n    address payable receiver,\n    address tokenAddress,\n    uint256 amount\n  )\n    internal\n  {\n    if (tokenAddress == address(0)) {\n      receiver.transfer(amount);\n    } else {\n      ERC20Interface(tokenAddress).transferFrom(msg.sender, receiver, amount);\n    }\n  }\n\n  function getProfile(\n    address owner\n  )\n    public\n    view\n    returns (\n      string memory,\n      string memory,\n      bytes32[] memory,\n      bytes32[] memory\n    )\n  {\n    return (\n      profiles[owner].format,\n      profiles[owner].content,\n      profiles[owner].phrases,\n      profiles[owner].expressedSentiments\n    );\n  }\n\n  function hashPhrase(\n    Phrase memory phrase\n  )\n    internal\n    pure\n    returns (bytes32)\n  {\n    return sha256(\n      abi.encodePacked(\n        phrase.format, \"-\",\n        phrase.content, \"-\",\n        phrase.creator, \"-\",\n        phrase.beneficiary\n      )\n    );\n  }\n\n  function hashSentiment(\n    Sentiment memory sentiment\n  )\n    internal\n    pure\n    returns (bytes32)\n  {\n    return sha256(\n      abi.encodePacked(\n        sentiment.format, \"-\",\n        sentiment.content, \"-\",\n        sentiment.token, \"-\",\n        sentiment.value\n      )\n    );\n  }\n\n  function hashExpressedSentiment(\n    ExpressedSentiment memory expressedSentiment\n  )\n    internal\n    pure\n    returns (bytes32)\n  {\n    return sha256(\n      abi.encodePacked(\n        expressedSentiment.phrase, \"-\",\n        expressedSentiment.sentiment\n      )\n    );\n  }\n\n  function profileExists(\n    address owner\n  )\n    internal\n    view\n    returns (bool)\n  {\n    return bytes(profiles[owner].content).length != 0;\n  }\n\n  function phraseExists(\n    bytes32 key\n  )\n    internal\n    view\n    returns (bool)\n  {\n    return bytes(phrases[key].content).length != 0;\n  }\n\n  function sentimentExists(\n    bytes32 key\n  )\n    internal\n    view\n    returns (bool)\n  {\n    return bytes(sentiments[key].content).length != 0;\n  }\n\n  function expressedSentimentExists(\n    bytes32 key\n  )\n    internal\n    view\n    returns (bool)\n  {\n    return expressedSentiments[key].phrase != \"\" && expressedSentiments[key].sentiment != \"\";\n  }\n}\n",
  "sourcePath": "/home/grant/workshop/phrase/solidity-contracts/contracts/Registry.sol",
  "compiler": {
    "name": "solc",
    "version": "0.5.8+commit.23d335f2.Emscripten.clang"
  },
  "schemaVersion": "3.0.11",
  "updatedAt": "2019-09-20T08:29:15.608Z",
  "devdoc": {
    "methods": {}
  },
  "userdoc": {
    "methods": {}
  }
}