{
  "contractName": "Registry",
  "abi": [
    {
      "constant": true,
      "inputs": [
        {
          "name": "",
          "type": "bytes32"
        }
      ],
      "name": "expressedSentiments",
      "outputs": [
        {
          "name": "phrase",
          "type": "bytes32"
        },
        {
          "name": "sentiment",
          "type": "bytes32"
        }
      ],
      "payable": false,
      "stateMutability": "view",
      "type": "function"
    },
    {
      "constant": true,
      "inputs": [
        {
          "name": "",
          "type": "address"
        }
      ],
      "name": "profiles",
      "outputs": [
        {
          "name": "format",
          "type": "string"
        },
        {
          "name": "content",
          "type": "string"
        }
      ],
      "payable": false,
      "stateMutability": "view",
      "type": "function"
    },
    {
      "constant": true,
      "inputs": [
        {
          "name": "",
          "type": "bytes32"
        }
      ],
      "name": "sentiments",
      "outputs": [
        {
          "name": "format",
          "type": "string"
        },
        {
          "name": "content",
          "type": "string"
        },
        {
          "name": "token",
          "type": "address"
        },
        {
          "name": "value",
          "type": "uint256"
        }
      ],
      "payable": false,
      "stateMutability": "view",
      "type": "function"
    },
    {
      "constant": true,
      "inputs": [
        {
          "name": "",
          "type": "bytes32"
        }
      ],
      "name": "phrases",
      "outputs": [
        {
          "name": "format",
          "type": "string"
        },
        {
          "name": "content",
          "type": "string"
        },
        {
          "name": "creator",
          "type": "address"
        },
        {
          "name": "beneficiary",
          "type": "address"
        }
      ],
      "payable": false,
      "stateMutability": "view",
      "type": "function"
    },
    {
      "anonymous": false,
      "inputs": [
        {
          "indexed": false,
          "name": "creator",
          "type": "address"
        },
        {
          "indexed": false,
          "name": "phrase",
          "type": "bytes32"
        }
      ],
      "name": "PhraseCreated",
      "type": "event"
    },
    {
      "anonymous": false,
      "inputs": [
        {
          "indexed": false,
          "name": "sentiment",
          "type": "bytes32"
        }
      ],
      "name": "SentimentCreated",
      "type": "event"
    },
    {
      "anonymous": false,
      "inputs": [
        {
          "indexed": false,
          "name": "expresser",
          "type": "address"
        },
        {
          "indexed": false,
          "name": "expressSentiment",
          "type": "bytes32"
        }
      ],
      "name": "SentimentExpressed",
      "type": "event"
    },
    {
      "anonymous": false,
      "inputs": [
        {
          "indexed": false,
          "name": "creator",
          "type": "address"
        }
      ],
      "name": "ProfileCreated",
      "type": "event"
    },
    {
      "constant": true,
      "inputs": [
        {
          "name": "owner",
          "type": "address"
        }
      ],
      "name": "getProfile",
      "outputs": [
        {
          "name": "",
          "type": "string"
        },
        {
          "name": "",
          "type": "string"
        },
        {
          "name": "",
          "type": "bytes32[]"
        },
        {
          "name": "",
          "type": "bytes32[]"
        }
      ],
      "payable": false,
      "stateMutability": "view",
      "type": "function"
    },
    {
      "constant": false,
      "inputs": [
        {
          "name": "format",
          "type": "string"
        },
        {
          "name": "content",
          "type": "string"
        }
      ],
      "name": "createProfile",
      "outputs": [],
      "payable": false,
      "stateMutability": "nonpayable",
      "type": "function"
    },
    {
      "constant": false,
      "inputs": [
        {
          "name": "format",
          "type": "string"
        },
        {
          "name": "content",
          "type": "string"
        },
        {
          "name": "beneficiary",
          "type": "address"
        }
      ],
      "name": "createPhrase",
      "outputs": [],
      "payable": false,
      "stateMutability": "nonpayable",
      "type": "function"
    },
    {
      "constant": false,
      "inputs": [
        {
          "name": "format",
          "type": "string"
        },
        {
          "name": "content",
          "type": "string"
        },
        {
          "name": "token",
          "type": "address"
        },
        {
          "name": "value",
          "type": "uint256"
        }
      ],
      "name": "createSentiment",
      "outputs": [],
      "payable": false,
      "stateMutability": "nonpayable",
      "type": "function"
    },
    {
      "constant": false,
      "inputs": [
        {
          "name": "phraseKey",
          "type": "bytes32"
        },
        {
          "name": "sentimentKey",
          "type": "bytes32"
        }
      ],
      "name": "expressSentiment",
      "outputs": [],
      "payable": true,
      "stateMutability": "payable",
      "type": "function"
    }
  ],
  "bytecode": "0x608060405234801561001057600080fd5b50612a03806100206000396000f3fe6080604052600436106100865760003560e01c8063ba1feb8a11610059578063ba1feb8a146105af578063bbe156271461070e578063dcb40ac714610844578063e280ca711461099e578063f9fbffd714610b2457610086565b80630f53a4701461008b5780634a6f324d146102515780639c2f7b76146103d0578063a13d0da714610426575b600080fd5b34801561009757600080fd5b506100da600480360360208110156100ae57600080fd5b81019080803573ffffffffffffffffffffffffffffffffffffffff169060200190929190505050610b5c565b6040518080602001806020018060200180602001858103855289818151815260200191508051906020019080838360005b8381101561012657808201518184015260208101905061010b565b50505050905090810190601f1680156101535780820380516001836020036101000a031916815260200191505b50858103845288818151815260200191508051906020019080838360005b8381101561018c578082015181840152602081019050610171565b50505050905090810190601f1680156101b95780820380516001836020036101000a031916815260200191505b50858103835287818151815260200191508051906020019060200280838360005b838110156101f55780820151818401526020810190506101da565b50505050905001858103825286818151815260200191508051906020019060200280838360005b8381101561023757808201518184015260208101905061021c565b505050509050019850505050505050505060405180910390f35b34801561025d57600080fd5b506103ce6004803603606081101561027457600080fd5b810190808035906020019064010000000081111561029157600080fd5b8201836020820111156102a357600080fd5b803590602001918460018302840111640100000000831117156102c557600080fd5b91908080601f016020809104026020016040519081016040528093929190818152602001838380828437600081840152601f19601f8201169050808301925050505050505091929192908035906020019064010000000081111561032857600080fd5b82018360208201111561033a57600080fd5b8035906020019184600183028401116401000000008311171561035c57600080fd5b91908080601f016020809104026020016040519081016040528093929190818152602001838380828437600081840152601f19601f820116905080830192505050505050509192919290803573ffffffffffffffffffffffffffffffffffffffff169060200190929190505050610e51565b005b3480156103dc57600080fd5b50610409600480360360208110156103f357600080fd5b81019080803590602001909291905050506110cf565b604051808381526020018281526020019250505060405180910390f35b34801561043257600080fd5b506105ad6004803603608081101561044957600080fd5b810190808035906020019064010000000081111561046657600080fd5b82018360208201111561047857600080fd5b8035906020019184600183028401116401000000008311171561049a57600080fd5b91908080601f016020809104026020016040519081016040528093929190818152602001838380828437600081840152601f19601f820116905080830192505050505050509192919290803590602001906401000000008111156104fd57600080fd5b82018360208201111561050f57600080fd5b8035906020019184600183028401116401000000008311171561053157600080fd5b91908080601f016020809104026020016040519081016040528093929190818152602001838380828437600081840152601f19601f820116905080830192505050505050509192919290803573ffffffffffffffffffffffffffffffffffffffff169060200190929190803590602001909291905050506110f3565b005b3480156105bb57600080fd5b5061070c600480360360408110156105d257600080fd5b81019080803590602001906401000000008111156105ef57600080fd5b82018360208201111561060157600080fd5b8035906020019184600183028401116401000000008311171561062357600080fd5b91908080601f016020809104026020016040519081016040528093929190818152602001838380828437600081840152601f19601f8201169050808301925050505050505091929192908035906020019064010000000081111561068657600080fd5b82018360208201111561069857600080fd5b803590602001918460018302840111640100000000831117156106ba57600080fd5b91908080601f016020809104026020016040519081016040528093929190818152602001838380828437600081840152601f19601f820116905080830192505050505050509192919290505050611222565b005b34801561071a57600080fd5b5061075d6004803603602081101561073157600080fd5b81019080803573ffffffffffffffffffffffffffffffffffffffff16906020019092919050505061141f565b604051808060200180602001838103835285818151815260200191508051906020019080838360005b838110156107a1578082015181840152602081019050610786565b50505050905090810190601f1680156107ce5780820380516001836020036101000a031916815260200191505b50838103825284818151815260200191508051906020019080838360005b838110156108075780820151818401526020810190506107ec565b50505050905090810190601f1680156108345780820380516001836020036101000a031916815260200191505b5094505050505060405180910390f35b34801561085057600080fd5b5061087d6004803603602081101561086757600080fd5b8101908080359060200190929190505050611573565b6040518080602001806020018573ffffffffffffffffffffffffffffffffffffffff1673ffffffffffffffffffffffffffffffffffffffff168152602001848152602001838103835287818151815260200191508051906020019080838360005b838110156108f95780820151818401526020810190506108de565b50505050905090810190601f1680156109265780820380516001836020036101000a031916815260200191505b50838103825286818151815260200191508051906020019080838360005b8381101561095f578082015181840152602081019050610944565b50505050905090810190601f16801561098c5780820380516001836020036101000a031916815260200191505b50965050505050505060405180910390f35b3480156109aa57600080fd5b506109d7600480360360208110156109c157600080fd5b81019080803590602001909291905050506116f3565b6040518080602001806020018573ffffffffffffffffffffffffffffffffffffffff1673ffffffffffffffffffffffffffffffffffffffff1681526020018473ffffffffffffffffffffffffffffffffffffffff1673ffffffffffffffffffffffffffffffffffffffff168152602001838103835287818151815260200191508051906020019080838360005b83811015610a7f578082015181840152602081019050610a64565b50505050905090810190601f168015610aac5780820380516001836020036101000a031916815260200191505b50838103825286818151815260200191508051906020019080838360005b83811015610ae5578082015181840152602081019050610aca565b50505050905090810190601f168015610b125780820380516001836020036101000a031916815260200191505b50965050505050505060405180910390f35b610b5a60048036036040811015610b3a57600080fd5b810190808035906020019092919080359060200190929190505050611893565b005b6060806060806000808673ffffffffffffffffffffffffffffffffffffffff1673ffffffffffffffffffffffffffffffffffffffff1681526020019081526020016000206000016000808773ffffffffffffffffffffffffffffffffffffffff1673ffffffffffffffffffffffffffffffffffffffff1681526020019081526020016000206001016000808873ffffffffffffffffffffffffffffffffffffffff1673ffffffffffffffffffffffffffffffffffffffff1681526020019081526020016000206002016000808973ffffffffffffffffffffffffffffffffffffffff1673ffffffffffffffffffffffffffffffffffffffff168152602001908152602001600020600301838054600181600116156101000203166002900480601f016020809104026020016040519081016040528092919081815260200182805460018160011615610100020316600290048015610cfb5780601f10610cd057610100808354040283529160200191610cfb565b820191906000526020600020905b815481529060010190602001808311610cde57829003601f168201915b50505050509350828054600181600116156101000203166002900480601f016020809104026020016040519081016040528092919081815260200182805460018160011615610100020316600290048015610d975780601f10610d6c57610100808354040283529160200191610d97565b820191906000526020600020905b815481529060010190602001808311610d7a57829003601f168201915b5050505050925081805480602002602001604051908101604052809291908181526020018280548015610de957602002820191906000526020600020905b815481526020019060010190808311610dd5575b5050505050915080805480602002602001604051908101604052809291908181526020018280548015610e3b57602002820191906000526020600020905b815481526020019060010190808311610e27575b5050505050905093509350935093509193509193565b610e5a33611f41565b610eaf576040517f08c379a000000000000000000000000000000000000000000000000000000000815260040180806020018281038252602c8152602001806129ac602c913960400191505060405180910390fd5b610eb7612755565b60405180608001604052808581526020018481526020013373ffffffffffffffffffffffffffffffffffffffff1681526020018373ffffffffffffffffffffffffffffffffffffffff1681525090506000610f1182611fa3565b905081600160008381526020019081526020016000206000820151816000019080519060200190610f439291906127a9565b506020820151816001019080519060200190610f609291906127a9565b5060408201518160020160006101000a81548173ffffffffffffffffffffffffffffffffffffffff021916908373ffffffffffffffffffffffffffffffffffffffff16021790555060608201518160030160006101000a81548173ffffffffffffffffffffffffffffffffffffffff021916908373ffffffffffffffffffffffffffffffffffffffff1602179055509050506000803373ffffffffffffffffffffffffffffffffffffffff1673ffffffffffffffffffffffffffffffffffffffff1681526020019081526020016000206002018190806001815401808255809150509060018203906000526020600020016000909192909190915055507f27f10c0c2bc5901c646cf059d82e6a8c2b2a8afec16d180a49a02175382da4053382604051808373ffffffffffffffffffffffffffffffffffffffff1673ffffffffffffffffffffffffffffffffffffffff1681526020018281526020019250505060405180910390a15050505050565b60036020528060005260406000206000915090508060000154908060010154905082565b6110fb612829565b60405180608001604052808681526020018581526020018473ffffffffffffffffffffffffffffffffffffffff168152602001838152509050600061113f826121fd565b9050816002600083815260200190815260200160002060008201518160000190805190602001906111719291906127a9565b50602082015181600101908051906020019061118e9291906127a9565b5060408201518160020160006101000a81548173ffffffffffffffffffffffffffffffffffffffff021916908373ffffffffffffffffffffffffffffffffffffffff160217905550606082015181600301559050507fbb865c7de54d565bd3eebd7fa2fafbccda719f1793badea68d4e98202b428847816040518082815260200191505060405180910390a1505050505050565b61122b33611f41565b15611281576040517f08c379a000000000000000000000000000000000000000000000000000000000815260040180806020018281038252603081526020018061297c6030913960400191505060405180910390fd5b816000803373ffffffffffffffffffffffffffffffffffffffff1673ffffffffffffffffffffffffffffffffffffffff16815260200190815260200160002060000190805190602001906112d6929190612867565b50806000803373ffffffffffffffffffffffffffffffffffffffff1673ffffffffffffffffffffffffffffffffffffffff168152602001908152602001600020600101908051906020019061132c929190612867565b506000803373ffffffffffffffffffffffffffffffffffffffff1673ffffffffffffffffffffffffffffffffffffffff1681526020019081526020016000206002017f617364000000000000000000000000000000000000000000000000000000000090806001815401808255809150509060018203906000526020600020016000909192909190915055507ff10ec97e920cde75887622583772c637595a40b1f7777c18e51ea36cd127475c33604051808273ffffffffffffffffffffffffffffffffffffffff1673ffffffffffffffffffffffffffffffffffffffff16815260200191505060405180910390a15050565b6000602052806000526040600020600091509050806000018054600181600116156101000203166002900480601f0160208091040260200160405190810160405280929190818152602001828054600181600116156101000203166002900480156114cb5780601f106114a0576101008083540402835291602001916114cb565b820191906000526020600020905b8154815290600101906020018083116114ae57829003601f168201915b505050505090806001018054600181600116156101000203166002900480601f0160208091040260200160405190810160405280929190818152602001828054600181600116156101000203166002900480156115695780601f1061153e57610100808354040283529160200191611569565b820191906000526020600020905b81548152906001019060200180831161154c57829003601f168201915b5050505050905082565b6002602052806000526040600020600091509050806000018054600181600116156101000203166002900480601f01602080910402602001604051908101604052809291908181526020018280546001816001161561010002031660029004801561161f5780601f106115f45761010080835404028352916020019161161f565b820191906000526020600020905b81548152906001019060200180831161160257829003601f168201915b505050505090806001018054600181600116156101000203166002900480601f0160208091040260200160405190810160405280929190818152602001828054600181600116156101000203166002900480156116bd5780601f10611692576101008083540402835291602001916116bd565b820191906000526020600020905b8154815290600101906020018083116116a057829003601f168201915b5050505050908060020160009054906101000a900473ffffffffffffffffffffffffffffffffffffffff16908060030154905084565b6001602052806000526040600020600091509050806000018054600181600116156101000203166002900480601f01602080910402602001604051908101604052809291908181526020018280546001816001161561010002031660029004801561179f5780601f106117745761010080835404028352916020019161179f565b820191906000526020600020905b81548152906001019060200180831161178257829003601f168201915b505050505090806001018054600181600116156101000203166002900480601f01602080910402602001604051908101604052809291908181526020018280546001816001161561010002031660029004801561183d5780601f106118125761010080835404028352916020019161183d565b820191906000526020600020905b81548152906001019060200180831161182057829003601f168201915b5050505050908060020160009054906101000a900473ffffffffffffffffffffffffffffffffffffffff16908060030160009054906101000a900473ffffffffffffffffffffffffffffffffffffffff16905084565b61189c33611f41565b6118f1576040517f08c379a000000000000000000000000000000000000000000000000000000000815260040180806020018281038252602c8152602001806129ac602c913960400191505060405180910390fd5b6118fa82612428565b61194f576040517f08c379a00000000000000000000000000000000000000000000000000000000081526004018080602001828103825260268152602001806129566026913960400191505060405180910390fd5b6119588161245f565b6119ad576040517f08c379a000000000000000000000000000000000000000000000000000000000815260040180806020018281038252602981526020018061292d6029913960400191505060405180910390fd5b6119b56128e7565b604051806040016040528084815260200183815250905060006119d782612496565b90506119e281612594565b611a1257816003600083815260200190815260200160002060008201518160000155602082015181600101559050505b611a1a612755565b60016000868152602001908152602001600020604051806080016040529081600082018054600181600116156101000203166002900480601f016020809104026020016040519081016040528092919081815260200182805460018160011615610100020316600290048015611ad15780601f10611aa657610100808354040283529160200191611ad1565b820191906000526020600020905b815481529060010190602001808311611ab457829003601f168201915b50505050508152602001600182018054600181600116156101000203166002900480601f016020809104026020016040519081016040528092919081815260200182805460018160011615610100020316600290048015611b735780601f10611b4857610100808354040283529160200191611b73565b820191906000526020600020905b815481529060010190602001808311611b5657829003601f168201915b505050505081526020016002820160009054906101000a900473ffffffffffffffffffffffffffffffffffffffff1673ffffffffffffffffffffffffffffffffffffffff1673ffffffffffffffffffffffffffffffffffffffff1681526020016003820160009054906101000a900473ffffffffffffffffffffffffffffffffffffffff1673ffffffffffffffffffffffffffffffffffffffff1673ffffffffffffffffffffffffffffffffffffffff16815250509050611c32612829565b60026000868152602001908152602001600020604051806080016040529081600082018054600181600116156101000203166002900480601f016020809104026020016040519081016040528092919081815260200182805460018160011615610100020316600290048015611ce95780601f10611cbe57610100808354040283529160200191611ce9565b820191906000526020600020905b815481529060010190602001808311611ccc57829003601f168201915b50505050508152602001600182018054600181600116156101000203166002900480601f016020809104026020016040519081016040528092919081815260200182805460018160011615610100020316600290048015611d8b5780601f10611d6057610100808354040283529160200191611d8b565b820191906000526020600020905b815481529060010190602001808311611d6e57829003601f168201915b505050505081526020016002820160009054906101000a900473ffffffffffffffffffffffffffffffffffffffff1673ffffffffffffffffffffffffffffffffffffffff1673ffffffffffffffffffffffffffffffffffffffff1681526020016003820154815250509050600073ffffffffffffffffffffffffffffffffffffffff16826060015173ffffffffffffffffffffffffffffffffffffffff161415611e4b57611e468260400151826040015183606001516125d7565b611e63565b611e628260600151826040015183606001516125d7565b5b6000803373ffffffffffffffffffffffffffffffffffffffff1673ffffffffffffffffffffffffffffffffffffffff1681526020019081526020016000206003018390806001815401808255809150509060018203906000526020600020016000909192909190915055507f428df8e4a4bdea47e2342548e0ddaab8416a7f3e7b818a28733250e1a2a151853384604051808373ffffffffffffffffffffffffffffffffffffffff1673ffffffffffffffffffffffffffffffffffffffff1681526020018281526020019250505060405180910390a1505050505050565b6000806000808473ffffffffffffffffffffffffffffffffffffffff1673ffffffffffffffffffffffffffffffffffffffff16815260200190815260200160002060010180546001816001161561010002031660029004905014159050919050565b6000600282600001518360200151846040015185606001516040516020018085805190602001908083835b60208310611ff15780518252602082019150602081019050602083039250611fce565b6001836020036101000a038019825116818451168082178552505050505050905001807f2d0000000000000000000000000000000000000000000000000000000000000081525060010184805190602001908083835b6020831061206a5780518252602082019150602081019050602083039250612047565b6001836020036101000a038019825116818451168082178552505050505050905001807f2d000000000000000000000000000000000000000000000000000000000000008152506001018373ffffffffffffffffffffffffffffffffffffffff1673ffffffffffffffffffffffffffffffffffffffff1660601b8152601401807f2d000000000000000000000000000000000000000000000000000000000000008152506001018273ffffffffffffffffffffffffffffffffffffffff1673ffffffffffffffffffffffffffffffffffffffff1660601b81526014019450505050506040516020818303038152906040526040518082805190602001908083835b6020831061218e578051825260208201915060208101905060208303925061216b565b6001836020036101000a038019825116818451168082178552505050505050905001915050602060405180830381855afa1580156121d0573d6000803e3d6000fd5b5050506040513d60208110156121e557600080fd5b81019080805190602001909291905050509050919050565b6000600282600001518360200151846040015185606001516040516020018085805190602001908083835b6020831061224b5780518252602082019150602081019050602083039250612228565b6001836020036101000a038019825116818451168082178552505050505050905001807f2d0000000000000000000000000000000000000000000000000000000000000081525060010184805190602001908083835b602083106122c457805182526020820191506020810190506020830392506122a1565b6001836020036101000a038019825116818451168082178552505050505050905001807f2d000000000000000000000000000000000000000000000000000000000000008152506001018373ffffffffffffffffffffffffffffffffffffffff1673ffffffffffffffffffffffffffffffffffffffff1660601b8152601401807f2d000000000000000000000000000000000000000000000000000000000000008152506001018281526020019450505050506040516020818303038152906040526040518082805190602001908083835b602083106123b95780518252602082019150602081019050602083039250612396565b6001836020036101000a038019825116818451168082178552505050505050905001915050602060405180830381855afa1580156123fb573d6000803e3d6000fd5b5050506040513d602081101561241057600080fd5b81019080805190602001909291905050509050919050565b6000806001600084815260200190815260200160002060010180546001816001161561010002031660029004905014159050919050565b6000806002600084815260200190815260200160002060010180546001816001161561010002031660029004905014159050919050565b600060028260000151836020015160405160200180838152602001807f2d00000000000000000000000000000000000000000000000000000000000000815250600101828152602001925050506040516020818303038152906040526040518082805190602001908083835b602083106125255780518252602082019150602081019050602083039250612502565b6001836020036101000a038019825116818451168082178552505050505050905001915050602060405180830381855afa158015612567573d6000803e3d6000fd5b5050506040513d602081101561257c57600080fd5b81019080805190602001909291905050509050919050565b600080600360008481526020019081526020016000206000015414806125d0575060006003600084815260200190815260200160002060010154145b9050919050565b600073ffffffffffffffffffffffffffffffffffffffff168273ffffffffffffffffffffffffffffffffffffffff161415612658578273ffffffffffffffffffffffffffffffffffffffff166108fc829081150290604051600060405180830381858888f19350505050158015612652573d6000803e3d6000fd5b50612750565b8173ffffffffffffffffffffffffffffffffffffffff166323b872dd3385846040518463ffffffff1660e01b8152600401808473ffffffffffffffffffffffffffffffffffffffff1673ffffffffffffffffffffffffffffffffffffffff1681526020018373ffffffffffffffffffffffffffffffffffffffff1673ffffffffffffffffffffffffffffffffffffffff1681526020018281526020019350505050602060405180830381600087803b15801561271357600080fd5b505af1158015612727573d6000803e3d6000fd5b505050506040513d602081101561273d57600080fd5b8101908080519060200190929190505050505b505050565b60405180608001604052806060815260200160608152602001600073ffffffffffffffffffffffffffffffffffffffff168152602001600073ffffffffffffffffffffffffffffffffffffffff1681525090565b828054600181600116156101000203166002900490600052602060002090601f016020900481019282601f106127ea57805160ff1916838001178555612818565b82800160010185558215612818579182015b828111156128175782518255916020019190600101906127fc565b5b5090506128259190612907565b5090565b60405180608001604052806060815260200160608152602001600073ffffffffffffffffffffffffffffffffffffffff168152602001600081525090565b828054600181600116156101000203166002900490600052602060002090601f016020900481019282601f106128a857805160ff19168380011785556128d6565b828001600101855582156128d6579182015b828111156128d55782518255916020019190600101906128ba565b5b5090506128e39190612907565b5090565b604051806040016040528060008019168152602001600080191681525090565b61292991905b8082111561292557600081600090555060010161290d565b5090565b9056fe53656e74696d656e742073686f756c6420657869737420666f722074686520676976656e206b65792e5068726173652073686f756c6420657869737420666f722074686520676976656e206b65792e50726f66696c652073686f756c64206e6f7420657869737420666f7220746865206d6573736167652073656e6465722e50726f66696c652073686f756c6420657869737420666f7220746865206d6573736167652073656e6465722ea165627a7a7230582089aca6904bef9dbc97915f9c3e9878d89412c72adc79d42da9dadee3800a3b580029",
  "source": "pragma solidity >=0.5.0;\n\nimport \"./ERC20Interface.sol\";\n\ncontract Registry {\n  event PhraseCreated(address creator, bytes32 phrase);\n  event SentimentCreated(bytes32 sentiment);\n  event SentimentExpressed(address expresser, bytes32 expressSentiment);\n  event ProfileCreated(address creator);\n\n  struct Phrase {\n    string format;\n    string content;\n    address payable creator;\n    address payable beneficiary;\n  }\n\n  struct Sentiment {\n    string format;\n    string content;\n    address token;\n    uint256 value;\n  }\n\n  struct ExpressedSentiment {\n    bytes32 phrase;\n    bytes32 sentiment;\n  }\n\n  struct Profile {\n    string format;\n    string content;\n    bytes32[] phrases;\n    bytes32[] expressedSentiments;\n  }\n\n  mapping(address => Profile) public profiles;\n  mapping(bytes32 => Phrase) public phrases;\n  mapping(bytes32 => Sentiment) public sentiments;\n  mapping(bytes32 => ExpressedSentiment) public expressedSentiments;\n\n  function getProfile(address owner)\n    public\n    view\n    returns (string memory, string memory, bytes32[] memory, bytes32[] memory)\n  {\n    return (\n      profiles[owner].format,\n      profiles[owner].content,\n      profiles[owner].phrases,\n      profiles[owner].expressedSentiments\n    );\n  }\n\n  function createProfile(\n    string memory format,\n    string memory content\n  )\n    public\n  {\n    // Verify that the profile does not already exist.\n    require(\n      !profileExists(msg.sender),\n      \"Profile should not exist for the message sender.\"\n    );\n\n    // Create a new profile for the given address.\n    profiles[msg.sender].format = format;\n    profiles[msg.sender].content = content;\n\n    // TODO: delete this\n    profiles[msg.sender].phrases.push(bytes32(\"asd\"));\n\n    emit ProfileCreated(msg.sender);\n  }\n\n  function createPhrase(\n    string memory format,\n    string memory content,\n    address payable beneficiary\n  )\n    public\n  {\n    // Verify that the profile creating the phrase exists.\n    require(\n      profileExists(msg.sender),\n      \"Profile should exist for the message sender.\"\n    );\n\n    // Create a new phrase.\n    Phrase memory phrase = Phrase(\n      format,\n      content,\n      msg.sender,\n      beneficiary\n    );\n\n    // Create a unique key for the phrase and store it in the global map.\n    bytes32 key = hashPhrase(phrase);\n    phrases[key] = phrase;\n    profiles[msg.sender].phrases.push(key);\n\n    emit PhraseCreated(msg.sender, key);\n  }\n\n  function createSentiment(\n    string memory format,\n    string memory content,\n    address token,\n    uint256 value\n  )\n    public\n  {\n    // Create a new sentiment.\n    Sentiment memory sentiment = Sentiment(\n      format,\n      content,\n      token,\n      value\n    );\n\n    // Create a unique key for the sentiment and store it in the global map.\n    bytes32 key = hashSentiment(sentiment);\n    sentiments[key] = sentiment;\n\n    emit SentimentCreated(key);\n  }\n\n  function expressSentiment(\n    bytes32 phraseKey,\n    bytes32 sentimentKey\n  )\n    public\n    payable\n  {\n    // Verify that the profile, phrase, and sentiment exist.\n    require(\n      profileExists(msg.sender),\n      \"Profile should exist for the message sender.\"\n    );\n    require(\n      phraseExists(phraseKey),\n      \"Phrase should exist for the given key.\"\n    );\n    require(\n      sentimentExists(sentimentKey),\n      \"Sentiment should exist for the given key.\"\n    );\n\n    // Create a new expressed sentiment\n    ExpressedSentiment memory expressedSentiment = ExpressedSentiment(\n      phraseKey,\n      sentimentKey\n    );\n\n    // Store the expressed sentiment in the global map, if it isn't already.\n    bytes32 expressedSentimentKey = hashExpressedSentiment(expressedSentiment);\n    if(!expressedSentimentExists(expressedSentimentKey)) {\n      expressedSentiments[expressedSentimentKey] = expressedSentiment;\n    }\n\n    // Transfer the sentiment's value to the phrases's creator or beneficiary.\n    Phrase memory phrase = phrases[phraseKey];\n    Sentiment memory sentiment = sentiments[sentimentKey];\n    if (phrase.beneficiary == address(0)) {\n      transfer(phrase.creator, sentiment.token, sentiment.value);\n    } else {\n      transfer(phrase.beneficiary, sentiment.token, sentiment.value);\n    }\n\n    // Associate the expressed sentiment with the profile.\n    profiles[msg.sender].expressedSentiments.push(expressedSentimentKey);\n\n    emit SentimentExpressed(msg.sender, expressedSentimentKey);\n  }\n\n  function transfer(\n    address payable receiver,\n    address tokenAddress,\n    uint256 amount\n  )\n    internal\n  {\n    if (tokenAddress == address(0)) {\n      receiver.transfer(amount);\n    } else {\n      ERC20Interface(tokenAddress).transferFrom(msg.sender, receiver, amount);\n    }\n  }\n\n  function hashPhrase(\n    Phrase memory phrase\n  )\n    internal\n    pure\n    returns (bytes32)\n  {\n    return sha256(\n      abi.encodePacked(\n        phrase.format, \"-\",\n        phrase.content, \"-\",\n        phrase.creator, \"-\",\n        phrase.beneficiary\n      )\n    );\n  }\n\n  function hashSentiment(\n    Sentiment memory sentiment\n  )\n    internal\n    pure\n    returns (bytes32)\n  {\n    return sha256(\n      abi.encodePacked(\n        sentiment.format, \"-\",\n        sentiment.content, \"-\",\n        sentiment.token, \"-\",\n        sentiment.value\n      )\n    );\n  }\n\n  function hashExpressedSentiment(\n    ExpressedSentiment memory expressedSentiment\n  )\n    internal\n    pure\n    returns (bytes32)\n  {\n    return sha256(\n      abi.encodePacked(\n        expressedSentiment.phrase, \"-\",\n        expressedSentiment.sentiment\n      )\n    );\n  }\n\n  function profileExists(\n    address owner\n  )\n    internal\n    view\n    returns (bool)\n  {\n    return bytes(profiles[owner].content).length != 0;\n  }\n\n  function phraseExists(\n    bytes32 key\n  )\n    internal\n    view\n    returns (bool)\n  {\n    return bytes(phrases[key].content).length != 0;\n  }\n\n  function sentimentExists(\n    bytes32 key\n  )\n    internal\n    view\n    returns (bool)\n  {\n    return bytes(sentiments[key].content).length != 0;\n  }\n\n  function expressedSentimentExists(\n    bytes32 key\n  )\n    internal\n    view\n    returns (bool)\n  {\n    return expressedSentiments[key].phrase == \"\" || expressedSentiments[key].sentiment == \"\";\n  }\n}\n",
  "sourcePath": "/home/grant/workshop/phrase/solidity-contracts/contracts/Registry.sol",
  "compiler": {
    "name": "solc",
    "version": "0.5.8+commit.23d335f2.Emscripten.clang"
  },
  "schemaVersion": "3.0.11",
  "updatedAt": "2019-08-21T15:05:55.298Z",
  "devdoc": {
    "methods": {}
  },
  "userdoc": {
    "methods": {}
  }
}