{
  "contractName": "Registry",
  "abi": [
    {
      "constant": true,
      "inputs": [
        {
          "name": "",
          "type": "bytes32"
        }
      ],
      "name": "expressedSentiments",
      "outputs": [
        {
          "name": "phrase",
          "type": "bytes32"
        },
        {
          "name": "sentiment",
          "type": "bytes32"
        }
      ],
      "payable": false,
      "stateMutability": "view",
      "type": "function"
    },
    {
      "constant": true,
      "inputs": [
        {
          "name": "",
          "type": "address"
        }
      ],
      "name": "profiles",
      "outputs": [
        {
          "name": "format",
          "type": "string"
        },
        {
          "name": "content",
          "type": "string"
        }
      ],
      "payable": false,
      "stateMutability": "view",
      "type": "function"
    },
    {
      "constant": true,
      "inputs": [
        {
          "name": "",
          "type": "bytes32"
        }
      ],
      "name": "sentiments",
      "outputs": [
        {
          "name": "format",
          "type": "string"
        },
        {
          "name": "content",
          "type": "string"
        },
        {
          "name": "token",
          "type": "address"
        },
        {
          "name": "value",
          "type": "uint256"
        }
      ],
      "payable": false,
      "stateMutability": "view",
      "type": "function"
    },
    {
      "constant": true,
      "inputs": [
        {
          "name": "",
          "type": "bytes32"
        }
      ],
      "name": "phrases",
      "outputs": [
        {
          "name": "format",
          "type": "string"
        },
        {
          "name": "content",
          "type": "string"
        },
        {
          "name": "creator",
          "type": "address"
        },
        {
          "name": "beneficiary",
          "type": "address"
        }
      ],
      "payable": false,
      "stateMutability": "view",
      "type": "function"
    },
    {
      "anonymous": false,
      "inputs": [
        {
          "indexed": false,
          "name": "creator",
          "type": "address"
        },
        {
          "indexed": false,
          "name": "phrase",
          "type": "bytes32"
        }
      ],
      "name": "PhraseCreated",
      "type": "event"
    },
    {
      "anonymous": false,
      "inputs": [
        {
          "indexed": false,
          "name": "sentiment",
          "type": "bytes32"
        }
      ],
      "name": "SentimentCreated",
      "type": "event"
    },
    {
      "anonymous": false,
      "inputs": [
        {
          "indexed": false,
          "name": "expresser",
          "type": "address"
        },
        {
          "indexed": false,
          "name": "expressSentiment",
          "type": "bytes32"
        }
      ],
      "name": "SentimentExpressed",
      "type": "event"
    },
    {
      "anonymous": false,
      "inputs": [
        {
          "indexed": false,
          "name": "creator",
          "type": "address"
        }
      ],
      "name": "ProfileCreated",
      "type": "event"
    },
    {
      "constant": false,
      "inputs": [
        {
          "name": "format",
          "type": "string"
        },
        {
          "name": "content",
          "type": "string"
        }
      ],
      "name": "createProfile",
      "outputs": [],
      "payable": false,
      "stateMutability": "nonpayable",
      "type": "function"
    },
    {
      "constant": false,
      "inputs": [
        {
          "name": "format",
          "type": "string"
        },
        {
          "name": "content",
          "type": "string"
        },
        {
          "name": "beneficiary",
          "type": "address"
        }
      ],
      "name": "createPhrase",
      "outputs": [],
      "payable": false,
      "stateMutability": "nonpayable",
      "type": "function"
    },
    {
      "constant": false,
      "inputs": [
        {
          "name": "format",
          "type": "string"
        },
        {
          "name": "content",
          "type": "string"
        },
        {
          "name": "token",
          "type": "address"
        },
        {
          "name": "value",
          "type": "uint256"
        }
      ],
      "name": "createSentiment",
      "outputs": [],
      "payable": false,
      "stateMutability": "nonpayable",
      "type": "function"
    },
    {
      "constant": false,
      "inputs": [
        {
          "name": "phraseKey",
          "type": "bytes32"
        },
        {
          "name": "sentimentKey",
          "type": "bytes32"
        }
      ],
      "name": "expressSentiment",
      "outputs": [],
      "payable": true,
      "stateMutability": "payable",
      "type": "function"
    }
  ],
  "bytecode": "0x608060405234801561001057600080fd5b5061252e806100206000396000f3fe60806040526004361061007b5760003560e01c8063bbe156271161004e578063bbe156271461053d578063dcb40ac714610673578063e280ca71146107cd578063f9fbffd7146109535761007b565b80634a6f324d146100805780639c2f7b76146101ff578063a13d0da714610255578063ba1feb8a146103de575b600080fd5b34801561008c57600080fd5b506101fd600480360360608110156100a357600080fd5b81019080803590602001906401000000008111156100c057600080fd5b8201836020820111156100d257600080fd5b803590602001918460018302840111640100000000831117156100f457600080fd5b91908080601f016020809104026020016040519081016040528093929190818152602001838380828437600081840152601f19601f8201169050808301925050505050505091929192908035906020019064010000000081111561015757600080fd5b82018360208201111561016957600080fd5b8035906020019184600183028401116401000000008311171561018b57600080fd5b91908080601f016020809104026020016040519081016040528093929190818152602001838380828437600081840152601f19601f820116905080830192505050505050509192919290803573ffffffffffffffffffffffffffffffffffffffff16906020019092919050505061098b565b005b34801561020b57600080fd5b506102386004803603602081101561022257600080fd5b8101908080359060200190929190505050610c09565b604051808381526020018281526020019250505060405180910390f35b34801561026157600080fd5b506103dc6004803603608081101561027857600080fd5b810190808035906020019064010000000081111561029557600080fd5b8201836020820111156102a757600080fd5b803590602001918460018302840111640100000000831117156102c957600080fd5b91908080601f016020809104026020016040519081016040528093929190818152602001838380828437600081840152601f19601f8201169050808301925050505050505091929192908035906020019064010000000081111561032c57600080fd5b82018360208201111561033e57600080fd5b8035906020019184600183028401116401000000008311171561036057600080fd5b91908080601f016020809104026020016040519081016040528093929190818152602001838380828437600081840152601f19601f820116905080830192505050505050509192919290803573ffffffffffffffffffffffffffffffffffffffff16906020019092919080359060200190929190505050610c2d565b005b3480156103ea57600080fd5b5061053b6004803603604081101561040157600080fd5b810190808035906020019064010000000081111561041e57600080fd5b82018360208201111561043057600080fd5b8035906020019184600183028401116401000000008311171561045257600080fd5b91908080601f016020809104026020016040519081016040528093929190818152602001838380828437600081840152601f19601f820116905080830192505050505050509192919290803590602001906401000000008111156104b557600080fd5b8201836020820111156104c757600080fd5b803590602001918460018302840111640100000000831117156104e957600080fd5b91908080601f016020809104026020016040519081016040528093929190818152602001838380828437600081840152601f19601f820116905080830192505050505050509192919290505050610d5c565b005b34801561054957600080fd5b5061058c6004803603602081101561056057600080fd5b81019080803573ffffffffffffffffffffffffffffffffffffffff169060200190929190505050610f58565b604051808060200180602001838103835285818151815260200191508051906020019080838360005b838110156105d05780820151818401526020810190506105b5565b50505050905090810190601f1680156105fd5780820380516001836020036101000a031916815260200191505b50838103825284818151815260200191508051906020019080838360005b8381101561063657808201518184015260208101905061061b565b50505050905090810190601f1680156106635780820380516001836020036101000a031916815260200191505b5094505050505060405180910390f35b34801561067f57600080fd5b506106ac6004803603602081101561069657600080fd5b81019080803590602001909291905050506110ac565b6040518080602001806020018573ffffffffffffffffffffffffffffffffffffffff1673ffffffffffffffffffffffffffffffffffffffff168152602001848152602001838103835287818151815260200191508051906020019080838360005b8381101561072857808201518184015260208101905061070d565b50505050905090810190601f1680156107555780820380516001836020036101000a031916815260200191505b50838103825286818151815260200191508051906020019080838360005b8381101561078e578082015181840152602081019050610773565b50505050905090810190601f1680156107bb5780820380516001836020036101000a031916815260200191505b50965050505050505060405180910390f35b3480156107d957600080fd5b50610806600480360360208110156107f057600080fd5b810190808035906020019092919050505061122c565b6040518080602001806020018573ffffffffffffffffffffffffffffffffffffffff1673ffffffffffffffffffffffffffffffffffffffff1681526020018473ffffffffffffffffffffffffffffffffffffffff1673ffffffffffffffffffffffffffffffffffffffff168152602001838103835287818151815260200191508051906020019080838360005b838110156108ae578082015181840152602081019050610893565b50505050905090810190601f1680156108db5780820380516001836020036101000a031916815260200191505b50838103825286818151815260200191508051906020019080838360005b838110156109145780820151818401526020810190506108f9565b50505050905090810190601f1680156109415780820380516001836020036101000a031916815260200191505b50965050505050505060405180910390f35b6109896004803603604081101561096957600080fd5b8101908080359060200190929190803590602001909291905050506113cc565b005b61099433611a7a565b6109e9576040517f08c379a000000000000000000000000000000000000000000000000000000000815260040180806020018281038252602c8152602001806124d7602c913960400191505060405180910390fd5b6109f161228e565b60405180608001604052808581526020018481526020013373ffffffffffffffffffffffffffffffffffffffff1681526020018373ffffffffffffffffffffffffffffffffffffffff1681525090506000610a4b82611adc565b905081600160008381526020019081526020016000206000820151816000019080519060200190610a7d9291906122e2565b506020820151816001019080519060200190610a9a9291906122e2565b5060408201518160020160006101000a81548173ffffffffffffffffffffffffffffffffffffffff021916908373ffffffffffffffffffffffffffffffffffffffff16021790555060608201518160030160006101000a81548173ffffffffffffffffffffffffffffffffffffffff021916908373ffffffffffffffffffffffffffffffffffffffff1602179055509050506000803373ffffffffffffffffffffffffffffffffffffffff1673ffffffffffffffffffffffffffffffffffffffff1681526020019081526020016000206002018190806001815401808255809150509060018203906000526020600020016000909192909190915055507f27f10c0c2bc5901c646cf059d82e6a8c2b2a8afec16d180a49a02175382da4053382604051808373ffffffffffffffffffffffffffffffffffffffff1673ffffffffffffffffffffffffffffffffffffffff1681526020018281526020019250505060405180910390a15050505050565b60036020528060005260406000206000915090508060000154908060010154905082565b610c35612362565b60405180608001604052808681526020018581526020018473ffffffffffffffffffffffffffffffffffffffff1681526020018381525090506000610c7982611d36565b905081600260008381526020019081526020016000206000820151816000019080519060200190610cab9291906122e2565b506020820151816001019080519060200190610cc89291906122e2565b5060408201518160020160006101000a81548173ffffffffffffffffffffffffffffffffffffffff021916908373ffffffffffffffffffffffffffffffffffffffff160217905550606082015181600301559050507fbb865c7de54d565bd3eebd7fa2fafbccda719f1793badea68d4e98202b428847816040518082815260200191505060405180910390a1505050505050565b610d6533611a7a565b15610dbb576040517f08c379a00000000000000000000000000000000000000000000000000000000081526004018080602001828103825260308152602001806124a76030913960400191505060405180910390fd5b60405180608001604052808381526020018281526020016000604051908082528060200260200182016040528015610e025781602001602082028038833980820191505090505b5081526020016000604051908082528060200260200182016040528015610e385781602001602082028038833980820191505090505b508152506000803373ffffffffffffffffffffffffffffffffffffffff1673ffffffffffffffffffffffffffffffffffffffff1681526020019081526020016000206000820151816000019080519060200190610e969291906122e2565b506020820151816001019080519060200190610eb39291906122e2565b506040820151816002019080519060200190610ed09291906123a0565b506060820151816003019080519060200190610eed9291906123a0565b509050507ff10ec97e920cde75887622583772c637595a40b1f7777c18e51ea36cd127475c33604051808273ffffffffffffffffffffffffffffffffffffffff1673ffffffffffffffffffffffffffffffffffffffff16815260200191505060405180910390a15050565b6000602052806000526040600020600091509050806000018054600181600116156101000203166002900480601f0160208091040260200160405190810160405280929190818152602001828054600181600116156101000203166002900480156110045780601f10610fd957610100808354040283529160200191611004565b820191906000526020600020905b815481529060010190602001808311610fe757829003601f168201915b505050505090806001018054600181600116156101000203166002900480601f0160208091040260200160405190810160405280929190818152602001828054600181600116156101000203166002900480156110a25780601f10611077576101008083540402835291602001916110a2565b820191906000526020600020905b81548152906001019060200180831161108557829003601f168201915b5050505050905082565b6002602052806000526040600020600091509050806000018054600181600116156101000203166002900480601f0160208091040260200160405190810160405280929190818152602001828054600181600116156101000203166002900480156111585780601f1061112d57610100808354040283529160200191611158565b820191906000526020600020905b81548152906001019060200180831161113b57829003601f168201915b505050505090806001018054600181600116156101000203166002900480601f0160208091040260200160405190810160405280929190818152602001828054600181600116156101000203166002900480156111f65780601f106111cb576101008083540402835291602001916111f6565b820191906000526020600020905b8154815290600101906020018083116111d957829003601f168201915b5050505050908060020160009054906101000a900473ffffffffffffffffffffffffffffffffffffffff16908060030154905084565b6001602052806000526040600020600091509050806000018054600181600116156101000203166002900480601f0160208091040260200160405190810160405280929190818152602001828054600181600116156101000203166002900480156112d85780601f106112ad576101008083540402835291602001916112d8565b820191906000526020600020905b8154815290600101906020018083116112bb57829003601f168201915b505050505090806001018054600181600116156101000203166002900480601f0160208091040260200160405190810160405280929190818152602001828054600181600116156101000203166002900480156113765780601f1061134b57610100808354040283529160200191611376565b820191906000526020600020905b81548152906001019060200180831161135957829003601f168201915b5050505050908060020160009054906101000a900473ffffffffffffffffffffffffffffffffffffffff16908060030160009054906101000a900473ffffffffffffffffffffffffffffffffffffffff16905084565b6113d533611a7a565b61142a576040517f08c379a000000000000000000000000000000000000000000000000000000000815260040180806020018281038252602c8152602001806124d7602c913960400191505060405180910390fd5b61143382611f61565b611488576040517f08c379a00000000000000000000000000000000000000000000000000000000081526004018080602001828103825260268152602001806124816026913960400191505060405180910390fd5b61149181611f98565b6114e6576040517f08c379a00000000000000000000000000000000000000000000000000000000081526004018080602001828103825260298152602001806124586029913960400191505060405180910390fd5b6114ee6123ed565b6040518060400160405280848152602001838152509050600061151082611fcf565b905061151b816120cd565b61154b57816003600083815260200190815260200160002060008201518160000155602082015181600101559050505b61155361228e565b60016000868152602001908152602001600020604051806080016040529081600082018054600181600116156101000203166002900480601f01602080910402602001604051908101604052809291908181526020018280546001816001161561010002031660029004801561160a5780601f106115df5761010080835404028352916020019161160a565b820191906000526020600020905b8154815290600101906020018083116115ed57829003601f168201915b50505050508152602001600182018054600181600116156101000203166002900480601f0160208091040260200160405190810160405280929190818152602001828054600181600116156101000203166002900480156116ac5780601f10611681576101008083540402835291602001916116ac565b820191906000526020600020905b81548152906001019060200180831161168f57829003601f168201915b505050505081526020016002820160009054906101000a900473ffffffffffffffffffffffffffffffffffffffff1673ffffffffffffffffffffffffffffffffffffffff1673ffffffffffffffffffffffffffffffffffffffff1681526020016003820160009054906101000a900473ffffffffffffffffffffffffffffffffffffffff1673ffffffffffffffffffffffffffffffffffffffff1673ffffffffffffffffffffffffffffffffffffffff1681525050905061176b612362565b60026000868152602001908152602001600020604051806080016040529081600082018054600181600116156101000203166002900480601f0160208091040260200160405190810160405280929190818152602001828054600181600116156101000203166002900480156118225780601f106117f757610100808354040283529160200191611822565b820191906000526020600020905b81548152906001019060200180831161180557829003601f168201915b50505050508152602001600182018054600181600116156101000203166002900480601f0160208091040260200160405190810160405280929190818152602001828054600181600116156101000203166002900480156118c45780601f10611899576101008083540402835291602001916118c4565b820191906000526020600020905b8154815290600101906020018083116118a757829003601f168201915b505050505081526020016002820160009054906101000a900473ffffffffffffffffffffffffffffffffffffffff1673ffffffffffffffffffffffffffffffffffffffff1673ffffffffffffffffffffffffffffffffffffffff1681526020016003820154815250509050600073ffffffffffffffffffffffffffffffffffffffff16826060015173ffffffffffffffffffffffffffffffffffffffff1614156119845761197f826040015182604001518360600151612110565b61199c565b61199b826060015182604001518360600151612110565b5b6000803373ffffffffffffffffffffffffffffffffffffffff1673ffffffffffffffffffffffffffffffffffffffff1681526020019081526020016000206003018390806001815401808255809150509060018203906000526020600020016000909192909190915055507f428df8e4a4bdea47e2342548e0ddaab8416a7f3e7b818a28733250e1a2a151853384604051808373ffffffffffffffffffffffffffffffffffffffff1673ffffffffffffffffffffffffffffffffffffffff1681526020018281526020019250505060405180910390a1505050505050565b6000806000808473ffffffffffffffffffffffffffffffffffffffff1673ffffffffffffffffffffffffffffffffffffffff16815260200190815260200160002060010180546001816001161561010002031660029004905014159050919050565b6000600282600001518360200151846040015185606001516040516020018085805190602001908083835b60208310611b2a5780518252602082019150602081019050602083039250611b07565b6001836020036101000a038019825116818451168082178552505050505050905001807f2d0000000000000000000000000000000000000000000000000000000000000081525060010184805190602001908083835b60208310611ba35780518252602082019150602081019050602083039250611b80565b6001836020036101000a038019825116818451168082178552505050505050905001807f2d000000000000000000000000000000000000000000000000000000000000008152506001018373ffffffffffffffffffffffffffffffffffffffff1673ffffffffffffffffffffffffffffffffffffffff1660601b8152601401807f2d000000000000000000000000000000000000000000000000000000000000008152506001018273ffffffffffffffffffffffffffffffffffffffff1673ffffffffffffffffffffffffffffffffffffffff1660601b81526014019450505050506040516020818303038152906040526040518082805190602001908083835b60208310611cc75780518252602082019150602081019050602083039250611ca4565b6001836020036101000a038019825116818451168082178552505050505050905001915050602060405180830381855afa158015611d09573d6000803e3d6000fd5b5050506040513d6020811015611d1e57600080fd5b81019080805190602001909291905050509050919050565b6000600282600001518360200151846040015185606001516040516020018085805190602001908083835b60208310611d845780518252602082019150602081019050602083039250611d61565b6001836020036101000a038019825116818451168082178552505050505050905001807f2d0000000000000000000000000000000000000000000000000000000000000081525060010184805190602001908083835b60208310611dfd5780518252602082019150602081019050602083039250611dda565b6001836020036101000a038019825116818451168082178552505050505050905001807f2d000000000000000000000000000000000000000000000000000000000000008152506001018373ffffffffffffffffffffffffffffffffffffffff1673ffffffffffffffffffffffffffffffffffffffff1660601b8152601401807f2d000000000000000000000000000000000000000000000000000000000000008152506001018281526020019450505050506040516020818303038152906040526040518082805190602001908083835b60208310611ef25780518252602082019150602081019050602083039250611ecf565b6001836020036101000a038019825116818451168082178552505050505050905001915050602060405180830381855afa158015611f34573d6000803e3d6000fd5b5050506040513d6020811015611f4957600080fd5b81019080805190602001909291905050509050919050565b6000806001600084815260200190815260200160002060010180546001816001161561010002031660029004905014159050919050565b6000806002600084815260200190815260200160002060010180546001816001161561010002031660029004905014159050919050565b600060028260000151836020015160405160200180838152602001807f2d00000000000000000000000000000000000000000000000000000000000000815250600101828152602001925050506040516020818303038152906040526040518082805190602001908083835b6020831061205e578051825260208201915060208101905060208303925061203b565b6001836020036101000a038019825116818451168082178552505050505050905001915050602060405180830381855afa1580156120a0573d6000803e3d6000fd5b5050506040513d60208110156120b557600080fd5b81019080805190602001909291905050509050919050565b60008060036000848152602001908152602001600020600001541480612109575060006003600084815260200190815260200160002060010154145b9050919050565b600073ffffffffffffffffffffffffffffffffffffffff168273ffffffffffffffffffffffffffffffffffffffff161415612191578273ffffffffffffffffffffffffffffffffffffffff166108fc829081150290604051600060405180830381858888f1935050505015801561218b573d6000803e3d6000fd5b50612289565b8173ffffffffffffffffffffffffffffffffffffffff166323b872dd3385846040518463ffffffff1660e01b8152600401808473ffffffffffffffffffffffffffffffffffffffff1673ffffffffffffffffffffffffffffffffffffffff1681526020018373ffffffffffffffffffffffffffffffffffffffff1673ffffffffffffffffffffffffffffffffffffffff1681526020018281526020019350505050602060405180830381600087803b15801561224c57600080fd5b505af1158015612260573d6000803e3d6000fd5b505050506040513d602081101561227657600080fd5b8101908080519060200190929190505050505b505050565b60405180608001604052806060815260200160608152602001600073ffffffffffffffffffffffffffffffffffffffff168152602001600073ffffffffffffffffffffffffffffffffffffffff1681525090565b828054600181600116156101000203166002900490600052602060002090601f016020900481019282601f1061232357805160ff1916838001178555612351565b82800160010185558215612351579182015b82811115612350578251825591602001919060010190612335565b5b50905061235e919061240d565b5090565b60405180608001604052806060815260200160608152602001600073ffffffffffffffffffffffffffffffffffffffff168152602001600081525090565b8280548282559060005260206000209081019282156123dc579160200282015b828111156123db5782518255916020019190600101906123c0565b5b5090506123e99190612432565b5090565b604051806040016040528060008019168152602001600080191681525090565b61242f91905b8082111561242b576000816000905550600101612413565b5090565b90565b61245491905b80821115612450576000816000905550600101612438565b5090565b9056fe53656e74696d656e742073686f756c6420657869737420666f722074686520676976656e206b65792e5068726173652073686f756c6420657869737420666f722074686520676976656e206b65792e50726f66696c652073686f756c64206e6f7420657869737420666f7220746865206d6573736167652073656e6465722e50726f66696c652073686f756c6420657869737420666f7220746865206d6573736167652073656e6465722ea165627a7a72305820cbcc903081f8f2e423ac7325f720e72d160cb4183b72830ae7fd93332f5dbf880029",
  "source": "pragma solidity >=0.5.0;\n\nimport \"./ERC20Interface.sol\";\n\ncontract Registry {\n  event PhraseCreated(address creator, bytes32 phrase);\n  event SentimentCreated(bytes32 sentiment);\n  event SentimentExpressed(address expresser, bytes32 expressSentiment);\n  event ProfileCreated(address creator);\n\n  struct Phrase {\n    string format;\n    string content;\n    address payable creator;\n    address payable beneficiary;\n  }\n\n  struct Sentiment {\n    string format;\n    string content;\n    address token;\n    uint256 value;\n  }\n\n  struct ExpressedSentiment {\n    bytes32 phrase;\n    bytes32 sentiment;\n  }\n\n  struct Profile {\n    string format;\n    string content;\n    bytes32[] phrases;\n    bytes32[] expressedSentiments;\n  }\n\n  mapping(address => Profile) public profiles;\n  mapping(bytes32 => Phrase) public phrases;\n  mapping(bytes32 => Sentiment) public sentiments;\n  mapping(bytes32 => ExpressedSentiment) public expressedSentiments;\n\n  function createProfile(\n    string memory format,\n    string memory content\n  )\n    public\n  {\n    // Verify that the profile does not already exist.\n    require(\n      !profileExists(msg.sender),\n      \"Profile should not exist for the message sender.\"\n    );\n\n    // Create a new profile for the given address.\n    profiles[msg.sender] = Profile(\n      format,\n      content,\n      new bytes32[](0),\n      new bytes32[](0)\n    );\n\n    emit ProfileCreated(msg.sender);\n  }\n\n  function createPhrase(\n    string memory format,\n    string memory content,\n    address payable beneficiary\n  )\n    public\n  {\n    // Verify that the profile creating the phrase exists.\n    require(\n      profileExists(msg.sender),\n      \"Profile should exist for the message sender.\"\n    );\n\n    // Create a new phrase.\n    Phrase memory phrase = Phrase(\n      format,\n      content,\n      msg.sender,\n      beneficiary\n    );\n\n    // Create a unique key for the phrase and store it in the global map.\n    bytes32 key = hashPhrase(phrase);\n    phrases[key] = phrase;\n    profiles[msg.sender].phrases.push(key);\n\n    emit PhraseCreated(msg.sender, key);\n  }\n\n  function createSentiment(\n    string memory format,\n    string memory content,\n    address token,\n    uint256 value\n  )\n    public\n  {\n    // Create a new sentiment.\n    Sentiment memory sentiment = Sentiment(\n      format,\n      content,\n      token,\n      value\n    );\n\n    // Create a unique key for the sentiment and store it in the global map.\n    bytes32 key = hashSentiment(sentiment);\n    sentiments[key] = sentiment;\n\n    emit SentimentCreated(key);\n  }\n\n  function expressSentiment(\n    bytes32 phraseKey,\n    bytes32 sentimentKey\n  )\n    public\n    payable\n  {\n    // Verify that the profile, phrase, and sentiment exist.\n    require(\n      profileExists(msg.sender),\n      \"Profile should exist for the message sender.\"\n    );\n    require(\n      phraseExists(phraseKey),\n      \"Phrase should exist for the given key.\"\n    );\n    require(\n      sentimentExists(sentimentKey),\n      \"Sentiment should exist for the given key.\"\n    );\n\n    // Create a new expressed sentiment\n    ExpressedSentiment memory expressedSentiment = ExpressedSentiment(\n      phraseKey,\n      sentimentKey\n    );\n\n    // Store the expressed sentiment in the global map, if it isn't already.\n    bytes32 expressedSentimentKey = hashExpressedSentiment(expressedSentiment);\n    if(!expressedSentimentExists(expressedSentimentKey)) {\n      expressedSentiments[expressedSentimentKey] = expressedSentiment;\n    }\n\n    // Transfer the sentiment's value to the phrases's creator or beneficiary.\n    Phrase memory phrase = phrases[phraseKey];\n    Sentiment memory sentiment = sentiments[sentimentKey];\n    if (phrase.beneficiary == address(0)) {\n      transfer(phrase.creator, sentiment.token, sentiment.value);\n    } else {\n      transfer(phrase.beneficiary, sentiment.token, sentiment.value);\n    }\n\n    // Associate the expressed sentiment with the profile.\n    profiles[msg.sender].expressedSentiments.push(expressedSentimentKey);\n\n    emit SentimentExpressed(msg.sender, expressedSentimentKey);\n  }\n\n  function transfer(\n    address payable receiver,\n    address tokenAddress,\n    uint256 amount\n  )\n    internal\n  {\n    if (tokenAddress == address(0)) {\n      receiver.transfer(amount);\n    } else {\n      ERC20Interface(tokenAddress).transferFrom(msg.sender, receiver, amount);\n    }\n  }\n\n  function hashPhrase(\n    Phrase memory phrase\n  )\n    internal\n    pure\n    returns (bytes32)\n  {\n    return sha256(\n      abi.encodePacked(\n        phrase.format, \"-\",\n        phrase.content, \"-\",\n        phrase.creator, \"-\",\n        phrase.beneficiary\n      )\n    );\n  }\n\n  function hashSentiment(\n    Sentiment memory sentiment\n  )\n    internal\n    pure\n    returns (bytes32)\n  {\n    return sha256(\n      abi.encodePacked(\n        sentiment.format, \"-\",\n        sentiment.content, \"-\",\n        sentiment.token, \"-\",\n        sentiment.value\n      )\n    );\n  }\n\n  function hashExpressedSentiment(\n    ExpressedSentiment memory expressedSentiment\n  )\n    internal\n    pure\n    returns (bytes32)\n  {\n    return sha256(\n      abi.encodePacked(\n        expressedSentiment.phrase, \"-\",\n        expressedSentiment.sentiment\n      )\n    );\n  }\n\n  function profileExists(\n    address owner\n  )\n    internal\n    view\n    returns (bool)\n  {\n    return bytes(profiles[owner].content).length != 0;\n  }\n\n  function phraseExists(\n    bytes32 key\n  )\n    internal\n    view\n    returns (bool)\n  {\n    return bytes(phrases[key].content).length != 0;\n  }\n\n  function sentimentExists(\n    bytes32 key\n  )\n    internal\n    view\n    returns (bool)\n  {\n    return bytes(sentiments[key].content).length != 0;\n  }\n\n  function expressedSentimentExists(\n    bytes32 key\n  )\n    internal\n    view\n    returns (bool)\n  {\n    return expressedSentiments[key].phrase == \"\" || expressedSentiments[key].sentiment == \"\";\n  }\n}\n",
  "sourcePath": "/home/grant/workshop/phrase/solidity-contracts/contracts/Registry.sol",
  "compiler": {
    "name": "solc",
    "version": "0.5.8+commit.23d335f2.Emscripten.clang"
  },
  "schemaVersion": "3.0.11",
  "updatedAt": "2019-08-21T09:33:38.994Z",
  "devdoc": {
    "methods": {}
  },
  "userdoc": {
    "methods": {}
  }
}