{
  "contractName": "Registry",
  "abi": [
    {
      "constant": true,
      "inputs": [
        {
          "name": "",
          "type": "bytes32"
        }
      ],
      "name": "expressedSentiments",
      "outputs": [
        {
          "name": "phrase",
          "type": "bytes32"
        },
        {
          "name": "sentiment",
          "type": "bytes32"
        }
      ],
      "payable": false,
      "stateMutability": "view",
      "type": "function"
    },
    {
      "constant": true,
      "inputs": [
        {
          "name": "",
          "type": "address"
        }
      ],
      "name": "profiles",
      "outputs": [
        {
          "name": "content",
          "type": "string"
        }
      ],
      "payable": false,
      "stateMutability": "view",
      "type": "function"
    },
    {
      "constant": true,
      "inputs": [
        {
          "name": "",
          "type": "bytes32"
        }
      ],
      "name": "sentiments",
      "outputs": [
        {
          "name": "content",
          "type": "string"
        },
        {
          "name": "token",
          "type": "address"
        },
        {
          "name": "value",
          "type": "uint256"
        }
      ],
      "payable": false,
      "stateMutability": "view",
      "type": "function"
    },
    {
      "constant": true,
      "inputs": [
        {
          "name": "",
          "type": "bytes32"
        }
      ],
      "name": "phrases",
      "outputs": [
        {
          "name": "content",
          "type": "string"
        },
        {
          "name": "creator",
          "type": "address"
        },
        {
          "name": "beneficiary",
          "type": "address"
        }
      ],
      "payable": false,
      "stateMutability": "view",
      "type": "function"
    },
    {
      "constant": false,
      "inputs": [
        {
          "name": "content",
          "type": "string"
        }
      ],
      "name": "createProfile",
      "outputs": [],
      "payable": false,
      "stateMutability": "nonpayable",
      "type": "function"
    },
    {
      "constant": false,
      "inputs": [
        {
          "name": "content",
          "type": "string"
        },
        {
          "name": "beneficiary",
          "type": "address"
        }
      ],
      "name": "createPhrase",
      "outputs": [
        {
          "name": "",
          "type": "bytes32"
        }
      ],
      "payable": false,
      "stateMutability": "nonpayable",
      "type": "function"
    },
    {
      "constant": false,
      "inputs": [
        {
          "name": "content",
          "type": "string"
        },
        {
          "name": "token",
          "type": "address"
        },
        {
          "name": "value",
          "type": "uint256"
        }
      ],
      "name": "createSentiment",
      "outputs": [
        {
          "name": "",
          "type": "bytes32"
        }
      ],
      "payable": false,
      "stateMutability": "nonpayable",
      "type": "function"
    },
    {
      "constant": false,
      "inputs": [
        {
          "name": "phraseKey",
          "type": "bytes32"
        },
        {
          "name": "sentimentKey",
          "type": "bytes32"
        }
      ],
      "name": "expressSentiment",
      "outputs": [
        {
          "name": "",
          "type": "bytes32"
        }
      ],
      "payable": true,
      "stateMutability": "payable",
      "type": "function"
    }
  ],
  "bytecode": "0x608060405234801561001057600080fd5b50611b74806100206000396000f3fe60806040526004361061007b5760003560e01c8063bf1a674f1161004e578063bf1a674f14610364578063dcb40ac71461046a578063e280ca7114610558578063f9fbffd7146106725761007b565b8063334c3f0e146100805780636647a4ab146101485780639c2f7b7614610244578063bbe156271461029a575b600080fd5b34801561008c57600080fd5b50610146600480360360208110156100a357600080fd5b81019080803590602001906401000000008111156100c057600080fd5b8201836020820111156100d257600080fd5b803590602001918460018302840111640100000000831117156100f457600080fd5b91908080601f016020809104026020016040519081016040528093929190818152602001838380828437600081840152601f19601f8201169050808301925050505050505091929192905050506106be565b005b34801561015457600080fd5b5061022e6004803603604081101561016b57600080fd5b810190808035906020019064010000000081111561018857600080fd5b82018360208201111561019a57600080fd5b803590602001918460018302840111640100000000831117156101bc57600080fd5b91908080601f016020809104026020016040519081016040528093929190818152602001838380828437600081840152601f19601f820116905080830192505050505050509192919290803573ffffffffffffffffffffffffffffffffffffffff169060200190929190505050610833565b6040518082815260200191505060405180910390f35b34801561025057600080fd5b5061027d6004803603602081101561026757600080fd5b8101908080359060200190929190505050610a29565b604051808381526020018281526020019250505060405180910390f35b3480156102a657600080fd5b506102e9600480360360208110156102bd57600080fd5b81019080803573ffffffffffffffffffffffffffffffffffffffff169060200190929190505050610a4d565b6040518080602001828103825283818151815260200191508051906020019080838360005b8381101561032957808201518184015260208101905061030e565b50505050905090810190601f1680156103565780820380516001836020036101000a031916815260200191505b509250505060405180910390f35b34801561037057600080fd5b506104546004803603606081101561038757600080fd5b81019080803590602001906401000000008111156103a457600080fd5b8201836020820111156103b657600080fd5b803590602001918460018302840111640100000000831117156103d857600080fd5b91908080601f016020809104026020016040519081016040528093929190818152602001838380828437600081840152601f19601f820116905080830192505050505050509192919290803573ffffffffffffffffffffffffffffffffffffffff16906020019092919080359060200190929190505050610b03565b6040518082815260200191505060405180910390f35b34801561047657600080fd5b506104a36004803603602081101561048d57600080fd5b8101908080359060200190929190505050610bde565b60405180806020018473ffffffffffffffffffffffffffffffffffffffff1673ffffffffffffffffffffffffffffffffffffffff168152602001838152602001828103825285818151815260200191508051906020019080838360005b8381101561051b578082015181840152602081019050610500565b50505050905090810190601f1680156105485780820380516001836020036101000a031916815260200191505b5094505050505060405180910390f35b34801561056457600080fd5b506105916004803603602081101561057b57600080fd5b8101908080359060200190929190505050610cc0565b60405180806020018473ffffffffffffffffffffffffffffffffffffffff1673ffffffffffffffffffffffffffffffffffffffff1681526020018373ffffffffffffffffffffffffffffffffffffffff1673ffffffffffffffffffffffffffffffffffffffff168152602001828103825285818151815260200191508051906020019080838360005b8381101561063557808201518184015260208101905061061a565b50505050905090810190601f1680156106625780820380516001836020036101000a031916815260200191505b5094505050505060405180910390f35b6106a86004803603604081101561068857600080fd5b810190808035906020019092919080359060200190929190505050610dc2565b6040518082815260200191505060405180910390f35b6106c7336112c8565b1561071d576040517f08c379a0000000000000000000000000000000000000000000000000000000008152600401808060200182810382526030815260200180611aed6030913960400191505060405180910390fd5b6040518060600160405280828152602001600060405190808252806020026020018201604052801561075e5781602001602082028038833980820191505090505b50815260200160006040519080825280602002602001820160405280156107945781602001602082028038833980820191505090505b508152506000803373ffffffffffffffffffffffffffffffffffffffff1673ffffffffffffffffffffffffffffffffffffffff16815260200190815260200160002060008201518160000190805190602001906107f29291906118e2565b50602082015181600101908051906020019061080f929190611962565b50604082015181600201908051906020019061082c929190611962565b5090505050565b600061083e336112c8565b610893576040517f08c379a000000000000000000000000000000000000000000000000000000000815260040180806020018281038252602c815260200180611b1d602c913960400191505060405180910390fd5b61089b6119af565b60405180606001604052808581526020013373ffffffffffffffffffffffffffffffffffffffff1681526020018473ffffffffffffffffffffffffffffffffffffffff16815250905060006108ef8261132a565b9050816001600083815260200190815260200160002060008201518160000190805190602001906109219291906118e2565b5060208201518160010160006101000a81548173ffffffffffffffffffffffffffffffffffffffff021916908373ffffffffffffffffffffffffffffffffffffffff16021790555060408201518160020160006101000a81548173ffffffffffffffffffffffffffffffffffffffff021916908373ffffffffffffffffffffffffffffffffffffffff1602179055509050506000803373ffffffffffffffffffffffffffffffffffffffff1673ffffffffffffffffffffffffffffffffffffffff168152602001908152602001600020600101819080600181540180825580915050906001820390600052602060002001600090919290919091505550809250505092915050565b60036020528060005260406000206000915090508060000154908060010154905082565b6000602052806000526040600020600091509050806000018054600181600116156101000203166002900480601f016020809104026020016040519081016040528092919081815260200182805460018160011615610100020316600290048015610af95780601f10610ace57610100808354040283529160200191610af9565b820191906000526020600020905b815481529060010190602001808311610adc57829003601f168201915b5050505050905081565b6000610b0d6119fc565b60405180606001604052808681526020018573ffffffffffffffffffffffffffffffffffffffff1681526020018481525090506000610b4b82611505565b905081600260008381526020019081526020016000206000820151816000019080519060200190610b7d9291906118e2565b5060208201518160010160006101000a81548173ffffffffffffffffffffffffffffffffffffffff021916908373ffffffffffffffffffffffffffffffffffffffff1602179055506040820151816002015590505080925050509392505050565b6002602052806000526040600020600091509050806000018054600181600116156101000203166002900480601f016020809104026020016040519081016040528092919081815260200182805460018160011615610100020316600290048015610c8a5780601f10610c5f57610100808354040283529160200191610c8a565b820191906000526020600020905b815481529060010190602001808311610c6d57829003601f168201915b5050505050908060010160009054906101000a900473ffffffffffffffffffffffffffffffffffffffff16908060020154905083565b6001602052806000526040600020600091509050806000018054600181600116156101000203166002900480601f016020809104026020016040519081016040528092919081815260200182805460018160011615610100020316600290048015610d6c5780601f10610d4157610100808354040283529160200191610d6c565b820191906000526020600020905b815481529060010190602001808311610d4f57829003601f168201915b5050505050908060010160009054906101000a900473ffffffffffffffffffffffffffffffffffffffff16908060020160009054906101000a900473ffffffffffffffffffffffffffffffffffffffff16905083565b6000610dcd336112c8565b610e22576040517f08c379a000000000000000000000000000000000000000000000000000000000815260040180806020018281038252602c815260200180611b1d602c913960400191505060405180910390fd5b610e2b836116b1565b610e80576040517f08c379a0000000000000000000000000000000000000000000000000000000008152600401808060200182810382526026815260200180611ac76026913960400191505060405180910390fd5b610e89826116e8565b610ede576040517f08c379a0000000000000000000000000000000000000000000000000000000008152600401808060200182810382526029815260200180611a9e6029913960400191505060405180910390fd5b610ee6611a33565b60405180604001604052808581526020018481525090506000610f088261171f565b9050610f138161181d565b610f4357816003600083815260200190815260200160002060008201518160000155602082015181600101559050505b610f4b6119af565b60016000878152602001908152602001600020604051806060016040529081600082018054600181600116156101000203166002900480601f0160208091040260200160405190810160405280929190818152602001828054600181600116156101000203166002900480156110025780601f10610fd757610100808354040283529160200191611002565b820191906000526020600020905b815481529060010190602001808311610fe557829003601f168201915b505050505081526020016001820160009054906101000a900473ffffffffffffffffffffffffffffffffffffffff1673ffffffffffffffffffffffffffffffffffffffff1673ffffffffffffffffffffffffffffffffffffffff1681526020016002820160009054906101000a900473ffffffffffffffffffffffffffffffffffffffff1673ffffffffffffffffffffffffffffffffffffffff1673ffffffffffffffffffffffffffffffffffffffff168152505090506110c16119fc565b60026000878152602001908152602001600020604051806060016040529081600082018054600181600116156101000203166002900480601f0160208091040260200160405190810160405280929190818152602001828054600181600116156101000203166002900480156111785780601f1061114d57610100808354040283529160200191611178565b820191906000526020600020905b81548152906001019060200180831161115b57829003601f168201915b505050505081526020016001820160009054906101000a900473ffffffffffffffffffffffffffffffffffffffff1673ffffffffffffffffffffffffffffffffffffffff1673ffffffffffffffffffffffffffffffffffffffff1681526020016002820154815250509050600073ffffffffffffffffffffffffffffffffffffffff16826040015173ffffffffffffffffffffffffffffffffffffffff16141561123857611233826020015182602001518360400151611860565b611250565b61124f826040015182602001518360400151611860565b5b6000803373ffffffffffffffffffffffffffffffffffffffff1673ffffffffffffffffffffffffffffffffffffffff1681526020019081526020016000206002018390806001815401808255809150509060018203906000526020600020016000909192909190915055508294505050505092915050565b6000806000808473ffffffffffffffffffffffffffffffffffffffff1673ffffffffffffffffffffffffffffffffffffffff16815260200190815260200160002060000180546001816001161561010002031660029004905014159050919050565b600060028260000151836020015184604001516040516020018084805190602001908083835b602083106113735780518252602082019150602081019050602083039250611350565b6001836020036101000a038019825116818451168082178552505050505050905001807f2d000000000000000000000000000000000000000000000000000000000000008152506001018373ffffffffffffffffffffffffffffffffffffffff1673ffffffffffffffffffffffffffffffffffffffff1660601b8152601401807f2d000000000000000000000000000000000000000000000000000000000000008152506001018273ffffffffffffffffffffffffffffffffffffffff1673ffffffffffffffffffffffffffffffffffffffff1660601b815260140193505050506040516020818303038152906040526040518082805190602001908083835b602083106114965780518252602082019150602081019050602083039250611473565b6001836020036101000a038019825116818451168082178552505050505050905001915050602060405180830381855afa1580156114d8573d6000803e3d6000fd5b5050506040513d60208110156114ed57600080fd5b81019080805190602001909291905050509050919050565b600060028260000151836020015184604001516040516020018084805190602001908083835b6020831061154e578051825260208201915060208101905060208303925061152b565b6001836020036101000a038019825116818451168082178552505050505050905001807f2d000000000000000000000000000000000000000000000000000000000000008152506001018373ffffffffffffffffffffffffffffffffffffffff1673ffffffffffffffffffffffffffffffffffffffff1660601b8152601401807f2d0000000000000000000000000000000000000000000000000000000000000081525060010182815260200193505050506040516020818303038152906040526040518082805190602001908083835b60208310611642578051825260208201915060208101905060208303925061161f565b6001836020036101000a038019825116818451168082178552505050505050905001915050602060405180830381855afa158015611684573d6000803e3d6000fd5b5050506040513d602081101561169957600080fd5b81019080805190602001909291905050509050919050565b6000806001600084815260200190815260200160002060000180546001816001161561010002031660029004905014159050919050565b6000806002600084815260200190815260200160002060000180546001816001161561010002031660029004905014159050919050565b600060028260000151836020015160405160200180838152602001807f2d00000000000000000000000000000000000000000000000000000000000000815250600101828152602001925050506040516020818303038152906040526040518082805190602001908083835b602083106117ae578051825260208201915060208101905060208303925061178b565b6001836020036101000a038019825116818451168082178552505050505050905001915050602060405180830381855afa1580156117f0573d6000803e3d6000fd5b5050506040513d602081101561180557600080fd5b81019080805190602001909291905050509050919050565b60008060036000848152602001908152602001600020600001541480611859575060006003600084815260200190815260200160002060010154145b9050919050565b600073ffffffffffffffffffffffffffffffffffffffff168273ffffffffffffffffffffffffffffffffffffffff1614156118dd578273ffffffffffffffffffffffffffffffffffffffff166108fc829081150290604051600060405180830381858888f193505050501580156118db573d6000803e3d6000fd5b505b505050565b828054600181600116156101000203166002900490600052602060002090601f016020900481019282601f1061192357805160ff1916838001178555611951565b82800160010185558215611951579182015b82811115611950578251825591602001919060010190611935565b5b50905061195e9190611a53565b5090565b82805482825590600052602060002090810192821561199e579160200282015b8281111561199d578251825591602001919060010190611982565b5b5090506119ab9190611a78565b5090565b604051806060016040528060608152602001600073ffffffffffffffffffffffffffffffffffffffff168152602001600073ffffffffffffffffffffffffffffffffffffffff1681525090565b604051806060016040528060608152602001600073ffffffffffffffffffffffffffffffffffffffff168152602001600081525090565b604051806040016040528060008019168152602001600080191681525090565b611a7591905b80821115611a71576000816000905550600101611a59565b5090565b90565b611a9a91905b80821115611a96576000816000905550600101611a7e565b5090565b9056fe53656e74696d656e742073686f756c6420657869737420666f722074686520676976656e206b65792e5068726173652073686f756c6420657869737420666f722074686520676976656e206b65792e50726f66696c652073686f756c64206e6f7420657869737420666f7220746865206d6573736167652073656e6465722e50726f66696c652073686f756c6420657869737420666f7220746865206d6573736167652073656e6465722ea165627a7a723058208f1e3032c34ef07197f08c28ce668283d9c8446d30c0fce0b3cbd33d4243ceaf0029",
  "source": "pragma solidity >=0.5.0;\n\ncontract Registry {\n  struct Phrase {\n    string content;\n    address payable creator;\n    address payable beneficiary;\n  }\n\n  struct Sentiment {\n    string content;\n    address token;\n    uint256 value;\n  }\n\n  struct ExpressedSentiment {\n    bytes32 phrase;\n    bytes32 sentiment;\n  }\n\n  struct Profile {\n    string content;\n    bytes32[] phrases;\n    bytes32[] expressedSentiments;\n  }\n\n  mapping(address => Profile) public profiles;\n  mapping(bytes32 => Phrase) public phrases;\n  mapping(bytes32 => Sentiment) public sentiments;\n  mapping(bytes32 => ExpressedSentiment) public expressedSentiments;\n\n  function createProfile(\n    string memory content\n  )\n    public\n  {\n    // Verify that the profile does not already exist.\n    require(\n      !profileExists(msg.sender),\n      \"Profile should not exist for the message sender.\"\n    );\n\n    // Create a new profile for the given address.\n    profiles[msg.sender] = Profile(\n      content,\n      new bytes32[](0),\n      new bytes32[](0)\n    );\n  }\n\n  function createPhrase(\n    string memory content,\n    address payable beneficiary\n  )\n    public\n    returns (bytes32)\n  {\n    // Verify that the profile creating the phrase exists.\n    require(\n      profileExists(msg.sender),\n      \"Profile should exist for the message sender.\"\n    );\n\n    // Create a new phrase.\n    Phrase memory phrase = Phrase(\n      content,\n      msg.sender,\n      beneficiary\n    );\n\n    // Create a unique key for the phrase and store it in the global map.\n    bytes32 key = hashPhrase(phrase);\n    phrases[key] = phrase;\n    profiles[msg.sender].phrases.push(key);\n\n    return key;\n  }\n\n  function createSentiment(\n    string memory content,\n    address token,\n    uint256 value\n  )\n    public\n    returns (bytes32)\n  {\n    // Create a new sentiment.\n    Sentiment memory sentiment = Sentiment(\n      content,\n      token,\n      value\n    );\n\n    // Create a unique key for the sentiment and store it in the global map.\n    bytes32 key = hashSentiment(sentiment);\n    sentiments[key] = sentiment;\n\n    return key;\n  }\n\n  function expressSentiment(\n    bytes32 phraseKey,\n    bytes32 sentimentKey\n  )\n    public\n    payable\n    returns (bytes32)\n  {\n    // Verify that the profile, phrase, and sentiment exist.\n    require(\n      profileExists(msg.sender),\n      \"Profile should exist for the message sender.\"\n    );\n    require(\n      phraseExists(phraseKey),\n      \"Phrase should exist for the given key.\"\n    );\n    require(\n      sentimentExists(sentimentKey),\n      \"Sentiment should exist for the given key.\"\n    );\n\n    // Create a new expressed sentiment\n    ExpressedSentiment memory expressedSentiment = ExpressedSentiment(\n      phraseKey,\n      sentimentKey\n    );\n\n    // Store the expressed sentiment in the global map, if it isn't already.\n    bytes32 expressedSentimentKey = hashExpressedSentiment(expressedSentiment);\n    if(!expressedSentimentExists(expressedSentimentKey)) {\n      expressedSentiments[expressedSentimentKey] = expressedSentiment;\n    }\n\n    // Transfer the sentiment's value to the phrases's creator or beneficiary.\n    Phrase memory phrase = phrases[phraseKey];\n    Sentiment memory sentiment = sentiments[sentimentKey];\n    if (phrase.beneficiary == address(0)) {\n      transfer(phrase.creator, sentiment.token, sentiment.value);\n    } else {\n      transfer(phrase.beneficiary, sentiment.token, sentiment.value);\n    }\n\n    // Associate the expressed sentiment with the profile.\n    profiles[msg.sender].expressedSentiments.push(expressedSentimentKey);\n\n    return expressedSentimentKey;\n  }\n\n  function transfer(\n    address payable receiver,\n    address token,\n    uint256 amount\n  )\n    internal\n  {\n    if (token == address(0)) {\n      receiver.transfer(amount);\n    }\n    // TODO: Handle token addresses.\n  }\n\n  function hashPhrase(\n    Phrase memory phrase\n  )\n    internal\n    pure\n    returns (bytes32)\n  {\n    // TODO: Check what encodedPacked does\n    return sha256(\n      abi.encodePacked(\n        phrase.content, \"-\", phrase.creator, \"-\", phrase.beneficiary\n      )\n    );\n  }\n\n  function hashSentiment(\n    Sentiment memory sentiment\n  )\n    internal\n    pure\n    returns (bytes32)\n  {\n    // TODO: Check what encodedPacked does\n    return sha256(\n      abi.encodePacked(\n        sentiment.content, \"-\", sentiment.token, \"-\", sentiment.value\n      )\n    );\n  }\n\n  function hashExpressedSentiment(\n    ExpressedSentiment memory expressedSentiment\n  )\n    internal\n    pure\n    returns (bytes32)\n  {\n    // TODO: Check what encodedPacked does\n    return sha256(\n      abi.encodePacked(\n        expressedSentiment.phrase, \"-\", expressedSentiment.sentiment\n      )\n    );\n  }\n\n  function profileExists(\n    address owner\n  )\n    internal\n    view\n    returns (bool)\n  {\n    return bytes(profiles[owner].content).length != 0;\n  }\n\n  function phraseExists(\n    bytes32 key\n  )\n    internal\n    view\n    returns (bool)\n  {\n    return bytes(phrases[key].content).length != 0;\n  }\n\n  function sentimentExists(\n    bytes32 key\n  )\n    internal\n    view\n    returns (bool)\n  {\n    return bytes(sentiments[key].content).length != 0;\n  }\n\n  function expressedSentimentExists(\n    bytes32 key\n  )\n    internal\n    view\n    returns (bool)\n  {\n    return expressedSentiments[key].phrase == \"\" || expressedSentiments[key].sentiment == \"\";\n  }\n}\n",
  "sourcePath": "/home/grant/workshop/phrase/contracts/Registry.sol",
  "compiler": {
    "name": "solc",
    "version": "0.5.8+commit.23d335f2.Emscripten.clang"
  },
  "schemaVersion": "3.0.11",
  "updatedAt": "2019-08-05T12:08:45.532Z",
  "devdoc": {
    "methods": {}
  },
  "userdoc": {
    "methods": {}
  }
}